:020000040800F2
:1000000000A00020191600088113000883130008BF
:1000100085130008871300088913000800000000FA
:100020000000000000000000000000008B1300082A
:100030008D130008000000008F13000891130008C2
:100040006916000869160008691600086916000894
:1000500069160008691600089D1300086916000853
:100060006916000869160008691600086916000874
:100070006916000869160008691600086916000864
:100080006916000869160008691600086916000854
:100090006916000869160008691600086916000844
:1000A0006916000869160008691600086916000834
:1000B0006916000869160008691600086916000824
:1000C0006916000869160008691600086916000814
:1000D0006916000869160008691600086916000804
:1000E00069160008691600086916000869160008F4
:1000F00069160008691600086916000869160008E4
:100100000000000000000000000000006916000868
:1001100069160008691600086916000869160008C3
:1001200069160008691600086916000869160008B3
:1001300069160008691600080000000000000000B1
:10014000691600086916000869160008000000001A
:10015000000000000000000000000000000000009F
:100160000000000000000000691600086916000881
:1001700069160008000000000000000000000000F8
:080180000000000069160008F0
:10018800044B05481B1A062B02D9044B03B1184728
:10019800704700BF07000020040000200000000096
:1001A80005490648091A891001EBD171491002D096
:1001B800034B03B1184770470400002004000020D7
:1001C8000000000010B5064C237843B9FFF7D8FFAC
:1001D800044B13B10448AFF300800123237010BD12
:1001E80004000020000000006C16000808B5084B49
:1001F8001BB108490848AFF300800848036813B9E1
:10020800BDE80840CCE7064B002BF9D09847F7E744
:1002180000000000080000206C1600080400002000
:100228000000000070B50F4E0F4D761BB61018BFBA
:10023800002405D0013455F8043B9847A642F9D16B
:100248000A4E0B4D761B01F00DFAB61018BF0024AC
:1002580006D0013455F8043B9847A642F9D170BD41
:1002680070BD00BF68170008681700086C17000801
:100278006817000870B582B0044600285DD023686E
:1002880013B113F00F0F5ED0236813F0010F7CD069
:10029800636853B1B3F5803F07D0B3F5A02F04D0FE
:1002A8004FF49071B54801F043F8B54B5B6803F023
:1002B8000C03042B52D0B24B5B6803F00C03082BE1
:1002C80047D06368B3F5803F00F0A580002B40F06D
:1002D800A88003F1804303F504331A6822F48032BE
:1002E8001A601A6822F480221A60A54AD36A23F099
:1002F8000F03A1680B43D3626368002B00F0AB8047
:1003080001F06EF905464FF4003393FAA3F39C4BC2
:1003180019684FF4003393FAA3F3B3FA83F303F0A5
:100328001F03012202FA03F319422ED101F058F9F2
:10033800401B6428E7D903202BE340F219118F48AA
:1003480000F0F6FF9BE74FF48D718C4800F0F0FF4A
:100358009AE78B4B5B6813F4803FB2D04FF40033BD
:1003680093FAA3F3864B19684FF4003393FAA3F377
:10037800B3FA83F303F01F03012202FA03F31942CD
:1003880003D06368002B00F0FD82236813F0020F8E
:1003980000F0AD802369012B04D94FF4AC71774884
:1003A80000F0C6FF63691F2B72D8754B5B6813F0AA
:1003B8000C0F78D0724B5B6803F00C03082B6DD0E0
:1003C8002369002B00F0E080012292FAA2F3B3FA2D
:1003D80083F303F1845303F584139B001A6001F03F
:1003E800FFF80546022393FAA3F3654B1968022325
:1003F80093FAA3F3B3FA83F303F01F03012202FA7B
:1004080003F3194240F0AA8001F0EAF8401B0228E1
:10041800E8D90320BDE25A4A136843F480331360D5
:1004280063E7B3F5A02F09D0554B1A6822F4803240
:100438001A601A6822F480221A6056E703F1804392
:10044800A3F53C331A6842F480221A601A6842F411
:1004580080321A6049E701F0C3F805464FF40033CB
:1004680093FAA3F3464B19684FF4003393FAA3F3B6
:10047800B3FA83F303F01F03012202FA03F31942CC
:1004880083D001F0ADF8401B6428E7D9032080E24F
:1004980040F25911394800F04BFF86E7384B5B684A
:1004A80013F4803F8CD1022393FAA3F3344B1968D9
:1004B800022393FAA3F3B3FA83F303F01F03012291
:1004C80002FA03F3194204D02369934201D00120B0
:1004D8005FE22B48036823F0F8036169F82292FA77
:1004E800A2F2B2FA82F201FA02F21343036023681D
:1004F80013F0080F00F09780A369012B04D940F28C
:1005080099111E4800F014FFA369002B63D0012144
:1005180091FAA1F2B2FA82F21A4B13449B001960C5
:1005280001F05EF80546022393FAA3F293FAA3F2C8
:1005380093FAA3F2124A516A93FAA3F3B3FA83F334
:1005480003F01F03012202FA03F319426BD101F0F1
:1005580047F8401B0228E6D903201AE20848036836
:1005680023F0F8036169F82292FAA2F2B2FA82F251
:1005780001FA02F213430360B9E700BF84160008CA
:100588000010024020819010012393FAA3F3B3FADC
:1005980083F303F1845303F584139B0000221A604C
:1005A80001F01EF80546022393FAA3F3A34B19683A
:1005B800022393FAA3F3B3FA83F303F01F03012290
:1005C80002FA03F3194292D001F00AF8401B0228FC
:1005D800E9D90320DDE1012292FAA2F2B2FA82F20D
:1005E800974B13449B0000221A6000F0F9FF054660
:1005F800022393FAA3F293FAA3F293FAA3F28F4A8F
:10060800516A93FAA3F3B3FA83F303F01F030122A9
:1006180002FA03F3194206D000F0E2FF401B022859
:10062800E6D90320B5E1236813F0040F00F0BE807B
:10063800E368012B06D9052B04D040F2C511814887
:1006480000F076FE7D4BDB6913F0805F26D17B4B93
:10065800DA6942F08052DA61DB6903F08053019372
:10066800019B0125784B1B6813F4807F18D0E36841
:10067800012B29D073BB03F1804303F504331A6AB5
:1006880022F001021A621A6A22F004021A62E3686E
:10069800002B5DD000F0A4FF064647E00025E1E707
:1006A800694A136843F48073136000F099FF0646A3
:1006B800654B1B6813F4807FD9D100F091FF801B34
:1006C8006428F5D9032064E15C4A136A43F0010306
:1006D8001362DCE7052B09D0584B1A6A22F0010295
:1006E8001A621A6A22F004021A62D0E7534B1A6A95
:1006F80042F004021A621A6A42F001021A62C6E75C
:100708004E4B196A022393FAA3F3B3FA83F303F067
:100718001F03012202FA03F3194245D100F060FFDA
:10072800801B41F28833984200F22E81022393FA0B
:10073800A3F293FAA3F3B3FA83F35B0943F002033A
:10074800022BDDD0022393FAA3F33C4B596AD9E775
:1007580000F046FF064615E0384B196A022393FA63
:10076800A3F3B3FA83F303F01F03012202FA03F39E
:10077800194219D000F034FF801B41F288339842A7
:1007880000F20481022393FAA3F293FAA3F3B3FAD3
:1007980083F35B0943F00203022BDDD0022393FAB3
:1007A800A3F3264B596AD9E7002D3AD1E369022B06
:1007B8003DD8E369002B00F0EB80204A526802F034
:1007C8000C02082A00F0E780022B3FD04FF080731C
:1007D80093FAA3F3B3FA83F303F1845303F5841371
:1007E8009B0000221A6000F0FBFE04464FF00073E5
:1007F80093FAA3F3114B19684FF0007393FAA3F31C
:10080800B3FA83F303F01F03012202FA03F3194238
:1008180000F0B68000F0E4FE001B0228E6D90320B1
:10082800B7E0064AD36923F08053D361BEE740F2AC
:100838000921044800F07CFDBBE700BF001002401E
:10084800208190108416000800700040236A3BB194
:10085800B3F5803F04D040F21221504800F068FD03
:10086800636A73B3B3F5802F2BD0B3F5002F28D06C
:10087800B3F5402F25D0B3F5801F22D0B3F5A01FC4
:100888001FD0B3F5C01F1CD0B3F5E01F19D0B3F5C6
:10089800001F16D0B3F5101F13D0B3F5201F10D0CA
:1008A800B3F5301F0DD0B3F5401F0AD0B3F5501F74
:1008B80007D0B3F5601F04D040F21321374800F089
:1008C80037FD4FF0807393FAA3F3B3FA83F303F180
:1008D800845303F584139B0000221A6000F080FE05
:1008E80005464FF0007393FAA3F32D4B19684FF0A8
:1008F800007393FAA3F3B3FA83F303F01F030122FF
:1009080002FA03F3194206D000F06AFE401B0228DF
:10091800E7D903203DE022494B6823F47413626A47
:10092800206A024313434B604FF0807393FAA3F39A
:10093800B3FA83F303F1845303F584139B00012274
:100948001A6000F04DFE04464FF0007393FAA3F3CB
:10095800134B19684FF0007393FAA3F3B3FA83F3B8
:1009680003F01F03012202FA03F3194206D100F033
:1009780037FE001B0228E7D903200AE0002008E020
:10098800002006E0012004E0032002E0032000E04C
:10099800002002B070BD0120FBE700BF84160008EC
:1009A80000100240164B5B6803F00C02082A24D1A1
:1009B80003F470114FF4701292FAA2F2B2FA82F2B2
:1009C80021FA02F20F49885C0D4AD26A02F00F023E
:1009D8000F2191FAA1F1B1FA81F1CA400A498A5C62
:1009E80013F4803F03D1094B03FB00F07047084B19
:1009F800B3FBF2F303FB00F070470548704700BFF4
:100A080000100240BC160008CC16000800093D0082
:100A180000127A0070B50D460446C0B1236813F081
:100A28000F0F1AD0022D1ED89B4B1B6803F007032B
:100A38009D421ED9984A136823F007032B4313607D
:100A4800136803F007039D4213D0012070BD40F2E4
:100A58007721924800F06CFCE0E74FF41E718F4854
:100A680000F066FCDEE740F279218C4800F060FC7B
:100A7800DAE7236813F0020F1DD0A368A3B1802B17
:100A880012D0902B10D0A02B0ED0B02B0CD0C02B96
:100A98000AD0D02B08D0E02B06D0F02B04D04FF48E
:100AA80024717E4800F044FC7D4A536823F0F0032B
:100AB800A1680B435360236813F0010F00F0848092
:100AC8006368022B32D86368012B35D0022B48D0DB
:100AD800022292FAA2F2724A1068022292FAA2F252
:100AE800B2FA82F202F01F02012101FA02F2104268
:100AF80000F0D0806A494A6822F0030213434B6031
:100B080000F06EFD06466368012B3FD0022B4CD0E7
:100B1800634B5B6813F00C0F56D000F061FD801B2F
:100B280041F288339842F3D9032070BD40F29721EF
:100B38005A4800F0FDFBC6E74FF4003292FAA2F2E1
:100B4800574A10684FF4003292FAA2F2B2FA82F2CF
:100B580002F01F02012101FA02F21042CAD101205B
:100B680070BD4FF0007292FAA2F24D4A10684FF031
:100B7800007292FAA2F2B2FA82F202F01F02012186
:100B880001FA02F21042B5D1012070BD444B5B68F6
:100B980003F00C03042B17D000F022FD801B41F258
:100BA80088339842F2D9032070BD3D4B5B6803F04F
:100BB8000C03082B08D000F013FD801B41F288338A
:100BC8009842F2D9032070BD334B1B6803F007032A
:100BD8009D420CD2304A136823F007032B4313605D
:100BE800136803F007039D4201D0012070BD2368FC
:100BF80013F0040F19D0E36883B1B3F5806F0DD0FB
:100C0800B3F5A06F0AD0B3F5C06F07D0B3F5E06FA6
:100C180004D040F2E921214800F08AFB204A5368B9
:100C280023F4E063E1680B435360236813F0080F73
:100C38001AD0236983B1B3F5806F0DD0B3F5A06FD7
:100C48000AD0B3F5C06F07D0B3F5E06F04D04FF406
:100C58003C71124800F06CFB114A536823F460534E
:100C6800216943EAC1035360FFF79CFE0C4B5B68A4
:100C780003F0F003F02292FAA2F2B2FA82F2D34021
:100C8800084AD35CD840084B1860002000F078FC74
:100C9800002070BD012070BD0020024084160008AD
:100CA800001002405817000800000020014B186887
:100CB800704700BF0000002000B583B01C4B9A6944
:100CC80042F001029A619B6903F001030193019BC1
:100CD800032000F06FFB002211466FF00B0000F0BC
:100CE80087FB002211466FF00A0000F081FB00220A
:100CF80011466FF0090000F07BFB002211466FF0EF
:100D0800040000F075FB002211466FF0030000F0AC
:100D18006FFB002211466FF0010000F069FB002212
:100D280011464FF0FF3000F063FB03B05DF804FBA1
:100D3800001002402DE9F04782B005460C46B0F19C
:100D4800904F16D0A54B984213D003F58063984274
:100D58000FD003F5806398420BD003F58063984267
:100D680007D003F58063984203D0C3219C4800F064
:100D7800DFFA23689AB212B11B0C1B041BB1C42101
:100D8800974800F0D5FA6368012B22D9112B20D09F
:100D9800022B1ED0122B1CD0924A934219D002F576
:100DA8008012934215D002F58012934211D0A2F519
:100DB800F81293420DD002F58012934209D002F541
:100DC8008012934205D0032B03D0C521844800F03C
:100DD800AFFAA368022B01D80026C1E0C6218048DB
:100DE80000F0A6FAF8E7B5F1904F16D07B4B9D427C
:100DF80013D003F580639D420FD003F580639D42B5
:100E08000BD003F580639D4207D003F580639D42B4
:100E180003D0D521724800F08BFA23690C2B07D92F
:100E28000E2B05D00F2B03D0D6216D4800F080FA89
:100E3800F208083255F8223006F0070189000F2021
:100E4800884023EA0003206900FA01F10B4345F8C2
:100E5800223097E0E368012B05D9032B03D0EA2160
:100E68005F4800F065FAAB6808EA0303E26802FA33
:100E78000AF21343AB606B6823EA09096368C3F39A
:100E88000013B34049EA03036B60EB6808EA030800
:100E9800A36803FA0AF348EA0303EB60636813F0F4
:100EA800805F5CD0504B9A6942F001029A619B695D
:100EB80003F001030193019BB208911C4B4B53F8BB
:100EC800213006F0030189000F20884023EA00033F
:100ED800B5F1904F76D04148854275D000F58060D5
:100EE800854273D000F58060854271D000F580603E
:100EF800854265D0052000FA01F10B4302323B49D7
:100F080041F822303A4B1A68FB4302EA0301606851
:100F180010F4803F01D047EA0201354A1160526857
:100F280003EA0201606810F4003F01D047EA0201B9
:100F38002F4A5160926803EA0201606810F4801F2A
:100F480001D047EA02012A4A9160D26813406168D9
:100F580011F4001F01D047EA0203254AD360013685
:100F6800276837FA06F335D04FF0010909FA06F970
:100F780017EA0907F3D06368022B3FF434AF122B4A
:100F88003FF431AF2B684FEA460A4FF0030808FADE
:100F98000AF86FEA080803EA0803626802F0030225
:100FA80002FA0AF213432B6063685A1E012A7FF67D
:100FB80051AF112B3FF44EAF122B7FF466AF49E7C8
:100FC800042098E7002096E7012094E7022092E7A2
:100FD800032090E702B0BDE8F08700BF0004004896
:100FE800DC1600080000111000100240000001404B
:100FF8000004014070B5054614460E4649B1012C5F
:1010080004D940F2B111074800F092F93CB9AE6238
:1010180070BD4FF4D871034800F08AF9EFE7AE616C
:1010280070BD00BFDC16000838B505460C4621B96E
:101038004FF4E371034800F07BF96B695C406C6125
:1010480038BD00BFDC1600087047000008B5054B26
:101058005B69034200D108BD024B5861FFF7F4FFFA
:10106800F9E700BF0004014070B588B0254B5A6904
:1010780042F400325A615A6902F400320192019A2C
:101088005A6942F400125A615B6903F4001302932F
:10109800029B002214214FF09040FFF7ABFF1A4E3D
:1010A80000224FF4F8513046FFF7A4FF01250395BD
:1010B800164B04930224059403A94FF09040FFF7C0
:1010C80039FE14230393049505940323069303A977
:1010D8004FF09040FFF72EFE4FF4F853039304951A
:1010E80005940024069403A93046FFF723FE224600
:1010F8002146062000F07CF9062000F0BDF908B072
:1011080070BD00BF00100240001000480000111020
:1011180010B582B001900A4B5C68FFF7C7FD094B18
:10112800A3FB0030800C019B03FB00F00190044BF3
:101138005B681B1B019A9342F9D302B010BD00BF34
:10114800001000E083DE1B43F8B5054600220421A9
:101158004FF09040FFF74EFF6420FFF7D9FF0122C0
:1011680004214FF09040FFF745FF6420FFF7D0FFC0
:101178004FF400442CE0012204214FF09040FFF787
:1011880039FF64262E4B5F68FFF790FD2D4BA3FBBC
:101198000030800C06FB00F6294B5B68DB1BB34272
:1011A800FAD3002204214FF09040FFF723FF642672
:1011B800234B5F68FFF77AFD224BA3FB0030800CBE
:1011C80006FB00F61E4B5B68DB1BB342FAD36408D0
:1011D80074B32C42CFD0002204214FF09040FFF787
:1011E80009FF6426164B5F68FFF760FD154BA3FBEC
:1011F8000030800C06FB00F6114B5B68DB1BB3422A
:10120800FAD3012204214FF09040FFF7F3FE642641
:101218000B4B5F68FFF74AFD0A4BA3FB0030800CBD
:1012280006FB00F6064B5B68DB1BB342FAD3CEE73E
:10123800012204214FF09040FFF7DCFEF8BD00BF0B
:10124800001000E083DE1B4308B501224FF48061E3
:101258000148FFF7CFFEFEE70010004800B591B047
:101268000223069301220A9210220B920D93002367
:101278000E934FF4C0130F9306A8FEF7FBFF10BBA5
:101288000F23019302230293002303934FF4A062D8
:1012980004920593012101A8FFF7BCFBB8B9FFF739
:1012A80005FD0D4BA3FB0030800900F0FBF804207E
:1012B80000F00EF9002211464FF0FF3000F098F8C8
:1012C80011B05DF804FB92210448FFF7BDFFA0218F
:1012D8000248FFF7B9FF00BFD34D6210141700088A
:1012E80008B500F063F9FFF7B9FFFFF7BDFE00F09E
:1012F80021F898B90B4B1B78002BFBD06420FFF723
:1013080007FF4FF69660FFF71FFF4FF4006106488E
:10131800FFF78AFEFA2000F069F9F6E7662103482C
:10132800FFF792FF20000020001000481417000863
:10133800704700000E4BDA6822F08072DA60DA68D3
:1013480042F08072DA600B4B1A6822F001021A60D0
:101358001A6842F001021A6000225A6000BF00BFFA
:1013680000BF5B680BB9012070471046704700BF8B
:10137800F0ED00E0001000E07047FEE7FEE7FEE752
:10138800FEE770477047704708B500F021F900F094
:10139800BEF808BD08B50120FFF758FE0122044B2E
:1013A8001A7010214FF09040FFF724FE08BD00BFCF
:1013B8002000002010B50446C31E042B0FD80A4A8B
:1013C800D36823F4E0631B041B0C240204F4E064D8
:1013D800234343F0BF6343F40033D36010BDBC2103
:1013E8000248FFF7A5FFEAE700ED00E02017000834
:1013F80070B505460C4616460F2A24D80F2C27D858
:101408001A4BDB68C3F30223C3F10702042A28BF7F
:101418000422191D062920D9033B012101FA02F2F1
:10142800013A14409C4001FA03F3013B33401C434A
:10143800002D14DB2401E4B205F1604505F5614592
:1014480085F8004370BDD4210948FFF771FFD5E73F
:10145800D5210748FFF76CFFD2E70023DDE705F049
:101468000F052401E4B2034B5C5570BD00ED00E0AC
:101478002017000814ED00E010B5041E09DB62090E
:1014880004F01F04012303FA04F4044B43F8224038
:1014980010BDE8210248FFF74BFFF0E700E100E04C
:1014A800201700080138B0F1807F0AD2064B586037
:1014B800F021064A82F823100020986007221A605B
:1014C80070470120704700BF10E000E000ED00E029
:1014D80010B50446042800D038B9042C0BD0094AAA
:1014E800136823F00403136010BD40F2E1110648AD
:1014F800FFF71EFFF1E7034A136843F00403136084
:1015080010BD00BF10E000E020170008704708B5C4
:10151800FFF7FCFF08BD00001549D1F8883043F4F7
:101528007003C1F88830134B1A6842F001021A6040
:101538005868114A02405A601A6822F0847222F4EC
:1015480080321A601A6822F480221A605A6822F4DB
:10155800FE025A60DA6A22F00F02DA62186B074A52
:1015680002401A6300229A604FF000638B60704754
:1015780000ED00E0001002400CC07FF8CCFC00FF3A
:1015880010B50446074B1868074BA3FB00308009C9
:10159800FFF788FF002221464FF0FF30FFF728FFB2
:1015A800002010BD00000020D34D621008B5074A86
:1015B800136843F0100313600320FFF7FBFE0020BD
:1015C800FFF7DEFFFFF778FB002008BD0020024090
:1015D800024A136801331360704700BF24000020DB
:1015E800014B1868704700BF2400002030B583B055
:1015F8000190FFF7F5FF0546019CB4F1FF3F00D0CD
:101608000134FFF7EDFF401BA042FAD303B030BD11
:10161800DFF834D0002103E00C4B5B584350043111
:101628000B480C4B42189A42F6D30B4A02E00023AF
:1016380042F8043B094B9A42F9D3FFF76DFFFEF7D6
:10164800F1FDFFF74DFEFEE700A00020701700082F
:1016580000000020040000200400002028000020D2
:10166800FEE70000F8B500BFF8BC08BC9E4670470E
:0C167800F8B500BFF8BC08BC9E467047E7
:10168400447269766572732F53544D3332463378FE
:10169400785F48414C5F4472697665722F53726378
:1016A4002F73746D3332663378785F68616C5F7260
:1016B40063632E63000000000203040506070809A3
:1016C4000A0B0C0D0E0F1010010203040506070887
:1016D400090A0B0C0D0E0F10447269766572732F94
:1016E40053544D3332463378785F48414C5F4472EB
:1016F400697665722F5372632F73746D3332663358
:1017040078785F68616C5F6770696F2E63000000B2
:101714005372632F6D61696E2E63000044726976A3
:101724006572732F53544D3332463378785F484192
:101734004C5F4472697665722F5372632F73746DB4
:101744003332663378785F68616C5F636F72746597
:10175400782E630000000000000000000102030472
:041764000607080963
:04176800F50100087F
:04176C00CD010008A3
:0417700000127A00E9
:0400000508001619C0
:00000001FF
