:020000040800F2
:1000000000A00020DD0F0008F9020008FB02000834
:10001000FD020008FF0200080103000800000000C4
:1000200000000000000000000000000003030008C2
:10003000050300080000000007030008090300088A
:100040002D1000082D1000082D1000082D1000089C
:100050002D1000082D1000082D1000082D1000088C
:100060002D1000082D1000082D1000082D1000087C
:100070002D1000082D1000082D1000082D1000086C
:100080002D1000082D1000082D1000082D1000085C
:100090002D1000082D1000082D1000082D1000084C
:1000A0002D1000082D1000082D1000082D1000083C
:1000B0002D1000082D1000082D1000082D1000082C
:1000C0002D1000082D1000082D1000082D1000081C
:1000D0002D1000082D1000082D1000082D1000080C
:1000E0002D1000082D1000082D1000082D100008FC
:1000F0002D1000082D1000082D1000082D100008EC
:100100000000000000000000000000002D100008AA
:100110002D1000082D1000082D1000082D100008CB
:100120002D1000082D1000082D1000082D100008BB
:100130002D1000082D100008000000000000000035
:100140002D1000082D1000082D10000800000000E0
:10015000000000000000000000000000000000009F
:1001600000000000000000002D1000082D10000805
:100170002D1000080000000000000000000000003A
:08018000000000002D10000832
:10018800044B05481B1A062B02D9044B03B1184728
:10019800704700BF07000020040000200000000096
:1001A80005490648091A891001EBD171491002D096
:1001B800034B03B1184770470400002004000020D7
:1001C8000000000010B5064C237843B9FFF7D8FFAC
:1001D800044B13B10448AFF300800123237010BD12
:1001E80004000020000000003010000808B5084B8B
:1001F8001BB108490848AFF300800848036813B9E1
:10020800BDE80840CCE7064B002BF9D09847F7E744
:100218000000000008000020301000080400002042
:100228000000000070B50F4E0F4D761BB61018BFBA
:10023800002405D0013455F8043B9847A642F9D16B
:100248000A4E0B4D761B00F0EFFEB61018BF0024C7
:1002580006D0013455F8043B9847A642F9D170BD41
:1002680070BD00BF841000088410000888100008C2
:100278008410000800B583B01C4B9A6942F0010253
:100288009A619B6903F001030193019B032000F02D
:1002980071F8002211466FF00B0000F07DF8002283
:1002A80011466FF00A0000F077F8002211466FF04F
:1002B800090000F071F8002211466FF0040000F008
:1002C8006BF8002211466FF0030000F065F8002279
:1002D80011466FF0010000F05FF8002211464FF060
:1002E800FF3000F059F803B05DF804FB001002403D
:1002F8007047FEE7FEE7FEE7FEE770477047704786
:1003080008B500F03FF900F0A0F808BD1549D1F88C
:10031800883043F47003C1F88830134B1A6842F0F0
:1003280001021A605868114A02405A601A6822F09D
:10033800847222F480321A601A6822F480221A60C9
:100348005A6822F4FE025A60DA6A22F00F02DA6270
:10035800186B074A02401A6300229A604FF0006344
:100368008B60704700ED00E0001002400CC07FF881
:10037800CCFC00FF074AD36823F4E0631B041B0C82
:10038800000200F4E060184340F0BF6040F4003021
:10039800D060704700ED00E030B4164BDB68C3F363
:1003A8000223C3F10704042C28BF04241D1D062DB5
:1003B80017D9033B012505FA04F4013C2140994073
:1003C80005FA03F3013B1340194300280BDB09012D
:1003D800C9B200F1604000F5614080F8001330BCFC
:1003E80070470023E6E700F00F000901C9B2024B8D
:1003F8001954F4E700ED00E014ED00E00138B0F125
:10040800807F0AD2064B5860F021064A82F82310F2
:100418000020986007221A6070470120704700BFCB
:1004280010E000E000ED00E0042805D0054A13685C
:1004380023F0040313607047024A136843F004036F
:100448001360704710E000E0704708B5FFF7FCFF45
:1004580008BD000000B587B00F4B5A6942F400325E
:100468005A615B6903F400330093009B0022042166
:100478004FF0904000F0A4FD042301930123029360
:10048800022303930023049301A94FF0904000F046
:10049800C7FC07B05DF804FB00100240FEE700004F
:1004A80000B591B00223069301230A9310230B93FE
:1004B80000230D9306A800F085F8F0B90F230193E7
:1004C8000021029103910491059101A800F0B8FB65
:1004D800B8B900F09FFC0D4BA3FB00308009FFF773
:1004E8008DFF0420FFF7A0FF002211464FF0FF30D8
:1004F800FFF752FF11B05DF804FB80210448FFF7B5
:10050800CDFF8E210248FFF7C9FF00BFD34D62100F
:100518005810000808B500F023F8FFF7C1FFFFF7EF
:1005280099FF04214FF0904000F04FFDFA2000F0B1
:1005380037F8F6E710B50446074B1868074BA3FBD6
:1005480000308009FFF75AFF002221464FF0FF30A4
:10055800FFF722FF002010BD00000020D34D6210DD
:1005680008B5074A136843F0100313600320FFF728
:1005780001FF0020FFF7DEFFFFF77CFE002008BD2B
:1005880000200240024A136801331360704700BF1D
:1005980020000020014B1868704700BF2000002091
:1005A80030B583B00190FFF7F5FF0546019CB4F123
:1005B800FF3F00D00134FFF7EDFF401BA042FAD304
:1005C80003B030BD70B582B00446036813F0010F64
:1005D80063D0B54B5B6803F00C03042B46D0B24BD9
:1005E8005B6803F00C03082B3BD06368B3F5803FCE
:1005F80000F08E80002B40F0918003F1804303F5DA
:1006080004331A6822F480321A601A6822F48022AD
:100618001A60A54AD36A23F00F03A1680B43D3627B
:100628006368002B00F09480FFF7B4FF05464FF491
:10063800003393FAA3F39C4B19684FF4003393FAF1
:10064800A3F3B3FA83F303F01F03012202FA03F3BF
:10065800194222D1FFF79EFF401B6428E7D90320E7
:10066800ABE2914B5B6813F4803FBED04FF400338C
:1006780093FAA3F38C4B19684FF4003393FAA3F35E
:10068800B3FA83F303F01F03012202FA03F31942BA
:1006980003D06368002B00F08982236813F0020FEF
:1006A80000F09C80804B5B6813F00C0F72D07E4B7F
:1006B8005B6803F00C03082B67D02369002B00F05C
:1006C800CB80012292FAA2F3B3FA83F303F18453A5
:1006D80003F584139B001A60FFF75CFF05460223AD
:1006E80093FAA3F3704B1968022393FAA3F3B3FAAE
:1006F80083F303F01F03012202FA03F3194240F0C7
:100708009C80FFF747FF401B0228E8D9032054E2EA
:10071800654A136843F4803313607AE7B3F5A02F72
:1007280009D0614B1A6822F480321A601A6822F4E0
:1007380080221A606DE703F18043A3F53C331A6801
:1007480042F480221A601A6842F480321A6060E724
:10075800FFF720FF05464FF4003393FAA3F3524BFB
:1007680019684FF4003393FAA3F3B3FA83F303F051
:100778001F03012202FA03F319428ED0FFF70AFF82
:10078800401B6428E7D9032017E2474B5B6813F442
:10079800803F92D1022393FAA3F3434B19680223B3
:1007A80093FAA3F3B3FA83F303F01F03012202FAC7
:1007B80003F3194204D02369934201D00120FCE1DC
:1007C8003948036823F0F8036169F82292FAA2F223
:1007D800B2FA82F201FA02F213430360236813F0BB
:1007E800080F00F08D80A369002B61D0012191FAD8
:1007F800A1F2B2FA82F22D4B13449B001960FFF765
:10080800C9FE0546022393FAA3F293FAA3F293FAD8
:10081800A3F2254A516A93FAA3F3B3FA83F303F0D8
:100828001F03012202FA03F3194269D1FFF7B2FE4E
:10083800401B0228E6D90320BFE11B48036823F0C8
:10084800F8036169F82292FAA2F2B2FA82F201FA86
:1008580002F213430360C1E7012393FAA3F3B3FA47
:1008680083F303F1845303F584139B0000221A6079
:10087800FFF790FE0546022393FAA3F30A4B196883
:10088800022393FAA3F3B3FA83F303F01F030122BD
:1008980002FA03F31942A1D0FFF77CFE401B02289D
:1008A800E9D9032089E100BF00100240208190109F
:1008B800012292FAA2F2B2FA82F2C14B13449B00CF
:1008C80000221A60FFF766FE0546022393FAA3F298
:1008D80093FAA3F293FAA3F2BA4A516A93FAA3F3EA
:1008E800B3FA83F303F01F03012202FA03F3194258
:1008F80006D0FFF74FFE401B0228E6D903205CE133
:10090800236813F0040F00F0B380AE4BDB6913F0DB
:10091800805F26D1AB4BDA6942F08052DA61DB693D
:1009280003F080530193019B0125A74B1B6813F427
:10093800807F18D0E368012B29D073BB03F1804373
:1009480003F504331A6A22F001021A621A6A22F0C5
:1009580004021A62E368002B5DD0FFF71BFE06460F
:1009680047E00025E1E7984A136843F48073136071
:10097800FFF710FE0646944B1B6813F4807FD9D10D
:10098800FFF708FE801B6428F5D9032015E18D4A7E
:10099800136A43F001031362DCE7052B09D0894B86
:1009A8001A6A22F001021A621A6A22F004021A6212
:1009B800D0E7844B1A6A42F004021A621A6A42F0BB
:1009C80001021A62C6E77F4B196A022393FAA3F35E
:1009D800B3FA83F303F01F03012202FA03F3194267
:1009E80045D1FFF7D7FD801B41F28833984200F2CA
:1009F800DF80022393FAA3F293FAA3F3B3FA83F303
:100A08005B0943F00203022BDDD0022393FAA3F320
:100A18006C4B596AD9E7FFF7BDFD064615E0694BEF
:100A2800196A022393FAA3F3B3FA83F303F01F03BB
:100A3800012202FA03F3194219D0FFF7ABFD801B1C
:100A480041F28833984200F2B580022393FAA3F268
:100A580093FAA3F3B3FA83F35B0943F00203022B7F
:100A6800DDD0022393FAA3F3564B596AD9E7B5BBF5
:100A7800E369002B00F0A080524A526802F00C0291
:100A8800082A00F0A380022B2FD04FF0807393FA2E
:100A9800A3F3B3FA83F303F1845303F584139B00A0
:100AA80000221A60FFF776FD04464FF0007393FAB0
:100AB800A3F3444B19684FF0007393FAA3F3B3FA06
:100AC80083F303F01F03012202FA03F319426BD0E8
:100AD800FFF760FD001B0228E7D903206DE0394AC3
:100AE800D36923F08053D361C2E74FF0807393FA40
:100AF800A3F3B3FA83F303F1845303F584139B0040
:100B080000221A60FFF746FD05464FF0007393FA7E
:100B1800A3F32C4B19684FF0007393FAA3F3B3FABD
:100B280083F303F01F03012202FA03F3194206D0EC
:100B3800FFF730FD401B0228E7D903203DE021499B
:100B48004B6823F47413626A206A024313434B60B0
:100B58004FF0807393FAA3F3B3FA83F303F184534A
:100B680003F584139B0001221A60FFF713FD044666
:100B78004FF0007393FAA3F3124B19684FF0007308
:100B880093FAA3F3B3FA83F303F01F03012202FAE3
:100B980003F3194206D1FFF7FDFC001B0228E7D931
:100BA80003200AE0002008E0002006E0012004E01D
:100BB800032002E0032000E0002002B070BD00BF67
:100BC8002081901000100240007000400120F4E7DE
:100BD800164B5B6803F00C02082A24D103F4701149
:100BE8004FF4701292FAA2F2B2FA82F221FA02F2E9
:100BF8000F49885C0D4AD26A02F00F020F2191FA60
:100C0800A1F1B1FA81F1CA400A498A5C13F4803F24
:100C180003D1094B03FB00F07047084BB3FBF2F319
:100C280003FB00F070470548704700BF0010024002
:100C3800641000087410000800093D0000127A00D2
:100C4800704B1B6803F007038B420CD26D4A136884
:100C580023F007030B431360136803F0070399425B
:100C680001D00120704770B5036813F0020F06D059
:100C7800654A536823F0F0038468234353600D46A4
:100C88000446036813F0010F7AD04368012B2FD074
:100C9800022B42D0022292FAA2F25B4A1068022288
:100CA80092FAA2F2B2FA82F202F01F02012101FACC
:100CB80002F2104200F0A48053494A6822F003026D
:100CC80013434B60FFF766FC06466368012B39D077
:100CD800022B46D04C4B5B6813F00C0F50D0FFF73B
:100CE80059FC801B41F288339842F3D9032070BD28
:100CF8004FF4003292FAA2F2434A10684FF40032DD
:100D080092FAA2F2B2FA82F202F01F02012101FA6B
:100D180002F21042D0D1012070BD4FF0007292FA59
:100D2800A2F2394A10684FF0007292FAA2F2B2FAAF
:100D380082F202F01F02012101FA02F21042BBD135
:100D4800012070BD304B5B6803F00C03042B17D0F7
:100D5800FFF720FC801B41F288339842F2D9032028
:100D680070BD294B5B6803F00C03082B08D0FFF714
:100D780011FC801B41F288339842F2D9032070BDE0
:100D8800204B1B6803F007039D420CD21D4A1368D1
:100D980023F007032B431360136803F007039D42F6
:100DA80001D0012070BD236813F0040F06D0164A45
:100DB800536823F4E063E1680B435360236813F03E
:100DC800080F07D0104A536823F46053216943EA97
:100DD800C1035360FFF7FCFE0B4B5B6803F0F003A5
:100DE800F02292FAA2F2B2FA82F2D340074AD35C16
:100DF800D840074B18600020FFF79CFB002070BD0F
:100E0800012070BD00200240001002404810000878
:100E180000000020014B1868704700BF0000002048
:100E2800F0B583B000238CE0DE08083650F8264081
:100E380003F0070E4FEA8E0E0F2707FA0EF724EA83
:100E480007040F6907FA0EF73C4340F8264087E08D
:100E580086682640CF6807FA0EF73E4386604668E4
:100E680026EA05054E68C6F300169E4035434560E0
:100E7800C5682C408D6805FA0EF52C43C4604C6893
:100E880014F0805F5CD04A4CA56945F00105A56166
:100E9800A46904F001040194019C9D08AE1C454C12
:100EA80054F8264003F00306B6000F27B74024EA9B
:100EB8000704B0F1904F70D03F4FB8426FD007F59C
:100EC8008067B8426DD007F58067B8426BD007F5E8
:100ED8008067B8425FD0052707FA06F63443023523
:100EE800344E46F82540354C2568D44305EA0406B7
:100EF8004F6817F4803F01D042EA05062F4D2E6057
:100F08006D6804EA05064F6817F4003F01D042EA0D
:100F180005062A4D6E60AD6804EA05064F6817F4A9
:100F2800801F01D042EA0506244DAE60ED682C40D2
:100F38004E6816F4001F01D042EA05041F4AD46027
:100F480001330A6832FA03F42FD001259D402A4064
:100F5800F6D04C68022C3FF467AF122C3FF464AF14
:100F680006684FEA430E032404FA0EF4E4432640CD
:100F78004F6807F0030707FA0EF73E4306604E680E
:100F8800771E012F7FF664AF112E3FF461AF122E4A
:100F98007FF46EAF5CE704279EE700279CE70127F4
:100FA8009AE7022798E7032796E703B0F0BD00BF4A
:100FB8000010024000000140000400480004014005
:100FC8000AB981627047816170474369594041613C
:100FD80070470000DFF834D0002103E00C4B5B5869
:100FE800435004310B480C4B42189A42F6D30B4A33
:100FF80002E0002342F8043B094B9A42F9D3FFF779
:1010080085F9FFF70FF9FFF785FAFEE700A0002042
:101018008C100008000000200400002004000020BC
:1010280024000020FEE70000F8B500BFF8BC08BCAB
:101038009E467047F8B500BFF8BC08BC9E4670478E
:101048000000000000000000010203040607080970
:101058005372632F6D61696E2E63000002030405ED
:10106800060708090A0B0C0D0E0F101001020304E5
:0C10780005060708090A0B0C0D0E0F10EE
:04108400F50100086A
:04108800CD0100088E
:04108C0000127A00D4
:0400000508000FDD03
:00000001FF
