:020000040800F2
:1000000000A00020B5260008FD040008FF04000839
:1000100001050008030500080505000800000000B0
:1000200000000000000000000000000007050008BC
:1000300009050008000000000B0500080D05000878
:1000400005270008052700080527000805270008E0
:1000500005270008052700080527000805270008D0
:1000600005270008052700080527000805270008C0
:1000700005270008052700080527000805270008B0
:1000800005270008052700080527000805270008A0
:10009000052700080527000805270008190500089E
:1000A0000527000805270008052700080527000880
:1000B0000527000805270008052700080527000870
:1000C0000527000805270008052700080527000860
:1000D00005270008052700083D050008052700083A
:1000E0000527000805270008052700080527000840
:1000F0000527000805270008052700080527000830
:1001000000000000000000000000000005270008BB
:10011000052700080527000805270008052700080F
:1001200005270008052700080527000805270008FF
:100130000527000805270008000000000000000057
:100140000527000805270008052700080000000013
:10015000000000000000000000000000000000009F
:100160000000000000000000052700080527000827
:10017000052700080000000000000000000000004B
:08018000000000000527000843
:10018800044B05481B1A062B02D9044B03B1184728
:10019800704700BF0B00002008000020000000008E
:1001A80005490648091A891001EBD171491002D096
:1001B800034B03B1184770470800002008000020CF
:1001C8000000000010B5064C237843B9FFF7D8FFAC
:1001D800044B13B10448AFF300800123237010BD12
:1001E80008000020000000000827000808B5084B98
:1001F8001BB108490848AFF300800848036813B9E1
:10020800BDE80840CCE7064B002BF9D09847F7E744
:10021800000000000C00002008270008080000204B
:100228000000000070B50F4E0F4D761BB61018BFBA
:10023800002405D0013455F8043B9847A642F9D16B
:100248000A4E0B4D761B02F05BFAB61018BF00245D
:1002580006D0013455F8043B9847A642F9D170BD41
:1002680070BD00BFB4280008B4280008B8280008EA
:10027800B4280008531E9BB282B110B404780A78DF
:10028800944207D1013001311A46013B9BB2002A42
:10029800F4D1134618465DF8044B70471046704772
:1002A80030B589B01D4B5A6942F400325A615A6917
:1002B80002F400320192019A5A6942F400125A611A
:1002C8005B6903F400130293029B154D00224FF45F
:1002D800F851284601F07EF981230393114B0493CA
:1002E8000224059403A94FF0904000F0FFFF4FF45B
:1002F800F85303930123049305940024069403A957
:10030800284600F0F3FF22462146172000F088FE19
:10031800172000F0C9FE09B030BD00BF0010024030
:10032800001000480000111008B50122034B1A7094
:100338004FF40061024801F04DF908BD2800002083
:100348000010004808B501224FF40071014801F07F
:1003580041F908BD0010004808B501224FF480613A
:10036800014801F037F9FEE70010004808B50C48CD
:100378000C4B03604FF41653436000238360C36043
:1003880003610C2242618361C3610362436201F02D
:10039800BBFF00B908BDD9210348FFF7DDFF00BF47
:1003A80030000020004400402027000800B59FB01E
:1003B8000223149301221892102219921B930023EE
:1003C8001C934FF440131D9314A800F0BDF848BBCC
:1003D8000F230F9302211091002311934FF4806291
:1003E800129213930FA800F07FFCF8B90223009330
:1003F80000230393684601F027F9D8B900F0C0FD3F
:100408000E4BA3FB0030800900F064FE042000F0CE
:1004180077FE002211464FF0FF3000F001FE1FB0BA
:100428005DF804FBA5210648FFF796FFB3210448B1
:10043800FFF792FFBA210248FFF78EFFD34D6210F3
:100448002027000808B500F01FFFFFF7AFFFFFF7F0
:1004580027FFFFF78BFF07E04FF48071194801F081
:10046800D3F8FA2000F030FF80214FF0904001F0DF
:100478009DF80028F0D0144B1B68002BFBD00122FC
:100488001249134801F092FB18B174211148FFF783
:1004980063FF01224FF480510A4801F09BF80E4B8C
:1004A8001B78DBB2012BFAD100220B4B1A70012208
:1004B80006490A48FFF7DEFE00B9FEE78021054835
:1004C800FFF74AFF00100048240000202C000020FD
:1004D800300000202027000828000020000000200D
:1004E80008B501224FF48051014801F073F808BDA6
:1004F800001000487047FEE7FEE7FEE7FEE770479A
:100508007047704708B500F0D1FE00F018FE08BD2E
:1005180008B5064B5B6913F0800F02D00122044B2B
:100528001A60802001F082F808BD00BF0004014075
:100538002400002008B5024801F0D6FF08BD00BF1E
:10054800300000207047000070B582B004460028D3
:100558005DD0236813B113F00F0F5ED0236813F03A
:10056800010F7CD0636853B1B3F5803F07D0B3F572
:10057800A02F04D04FF49071B548FFF7B1FFB54BE9
:100588005B6803F00C03042B52D0B24B5B6803F09A
:100598000C03082B47D06368B3F5803F00F0A580B3
:1005A800002B40F0A88003F1804303F504331A6858
:1005B80022F480321A601A6822F480221A60A54A4E
:1005C800D36A23F00F03A1680B43D3626368002B3F
:1005D80000F0AB8000F072FE05464FF4003393FA4A
:1005E800A3F39C4B19684FF4003393FAA3F3B3FABF
:1005F80083F303F01F03012202FA03F319422ED1F9
:1006080000F05CFE401B6428E7D903202BE340F28E
:1006180019118F48FFF764FF9BE74FF48D718C48E1
:10062800FFF75EFF9AE78B4B5B6813F4803FB2D00D
:100638004FF4003393FAA3F3864B19684FF4003351
:1006480093FAA3F3B3FA83F303F01F03012202FA28
:1006580003F3194203D06368002B00F0FD8223687E
:1006680013F0020F00F0AD802369012B04D94FF479
:10067800AC717748FFF734FF63691F2B72D8754B4D
:100688005B6813F00C0F78D0724B5B6803F00C03B7
:10069800082B6DD02369002B00F0E080012292FA2C
:1006A800A2F3B3FA83F303F1845303F584139B0095
:1006B8001A6000F003FE0546022393FAA3F3654B84
:1006C8001968022393FAA3F3B3FA83F303F01F0321
:1006D800012202FA03F3194240F0AA8000F0EEFD6D
:1006E800401B0228E8D90320BDE25A4A136843F4A4
:1006F8008033136063E7B3F5A02F09D0554B1A6810
:1007080022F480321A601A6822F480221A6056E7AE
:1007180003F18043A3F53C331A6842F480221A603F
:100728001A6842F480321A6049E700F0C7FD0546AE
:100738004FF4003393FAA3F3464B19684FF4003390
:1007480093FAA3F3B3FA83F303F01F03012202FA27
:1007580003F3194283D000F0B1FD401B6428E7D9A8
:10076800032080E240F259113948FFF7B9FE86E7C5
:10077800384B5B6813F4803F8CD1022393FAA3F3C0
:10078800344B1968022393FAA3F3B3FA83F303F003
:100798001F03012202FA03F3194204D0236993428A
:1007A80001D001205FE22B48036823F0F803616958
:1007B800F82292FAA2F2B2FA82F201FA02F2134392
:1007C8000360236813F0080F00F09780A369012BDA
:1007D80004D940F299111E48FFF782FEA369002B45
:1007E80063D0012191FAA1F2B2FA82F21A4B1344B2
:1007F8009B00196000F062FD0546022393FAA3F2FC
:1008080093FAA3F293FAA3F2124A516A93FAA3F362
:10081800B3FA83F303F01F03012202FA03F3194228
:100828006BD100F04BFD401B0228E6D903201AE2E9
:100838000848036823F0F8036169F82292FAA2F2E3
:10084800B2FA82F201FA02F213430360B9E700BF79
:100858002C2700080010024020819010012393FAF1
:10086800A3F3B3FA83F303F1845303F584139B00D2
:1008780000221A6000F022FD0546022393FAA3F332
:10088800A34B1968022393FAA3F3B3FA83F303F093
:100898001F03012202FA03F3194292D000F00EFD61
:1008A800401B0228E9D90320DDE1012292FAA2F2D5
:1008B800B2FA82F2974B13449B0000221A6000F0B0
:1008C800FDFC0546022393FAA3F293FAA3F293FAE6
:1008D800A3F28F4A516A93FAA3F3B3FA83F303F0AE
:1008E8001F03012202FA03F3194206D000F0E6FCC6
:1008F800401B0228E6D90320B5E1236813F0040F52
:1009080000F0BE80E368012B06D9052B04D040F225
:10091800C5118148FFF7E4FD7D4BDB6913F0805F6B
:1009280026D17B4BDA6942F08052DA61DB6903F049
:1009380080530193019B0125784B1B6813F4807F3A
:1009480018D0E368012B29D073BB03F1804303F56A
:1009580004331A6A22F001021A621A6A22F00402A7
:100968001A62E368002B5DD000F0A8FC064647E059
:100978000025E1E7694A136843F48073136000F0C7
:100988009DFC0646654B1B6813F4807FD9D100F0A7
:1009980095FC801B6428F5D9032064E15C4A136A3E
:1009A80043F001031362DCE7052B09D0584B1A6AA0
:1009B80022F001021A621A6A22F004021A62D0E7CF
:1009C800534B1A6A42F004021A621A6A42F0010290
:1009D8001A62C6E74E4B196A022393FAA3F3B3FAD5
:1009E80083F303F01F03012202FA03F3194245D1EE
:1009F80000F064FC801B41F28833984200F22E819B
:100A0800022393FAA3F293FAA3F3B3FA83F35B09ED
:100A180043F00203022BDDD0022393FAA3F33C4BED
:100A2800596AD9E700F04AFC064615E0384B196ABE
:100A3800022393FAA3F3B3FA83F303F01F0301220B
:100A480002FA03F3194219D000F038FC801B41F276
:100A58008833984200F20481022393FAA3F293FAAE
:100A6800A3F3B3FA83F35B0943F00203022BDDD04F
:100A7800022393FAA3F3264B596AD9E7002D3AD1FA
:100A8800E369022B3DD8E369002B00F0EB80204A94
:100A9800526802F00C02082A00F0E780022B3FD0CF
:100AA8004FF0807393FAA3F3B3FA83F303F18453FB
:100AB80003F584139B0000221A6000F0FFFB044634
:100AC8004FF0007393FAA3F3114B19684FF00073BA
:100AD80093FAA3F3B3FA83F303F01F03012202FA94
:100AE80003F3194200F0B68000F0E8FB001B02286F
:100AF800E6D90320B7E0064AD36923F08053D361CF
:100B0800BEE740F209210448FFF7EAFCBBE700BF53
:100B180000100240208190102C270008007000402F
:100B2800236A3BB1B3F5803F04D040F2122150480C
:100B3800FFF7D6FC636A73B3B3F5802F2BD0B3F5F8
:100B4800002F28D0B3F5402F25D0B3F5801F22D031
:100B5800B3F5A01F1FD0B3F5C01F1CD0B3F5E01F1D
:100B680019D0B3F5001F16D0B3F5101F13D0B3F585
:100B7800201F10D0B3F5301F0DD0B3F5401F0AD099
:100B8800B3F5501F07D0B3F5601F04D040F213210E
:100B98003748FFF7A5FC4FF0807393FAA3F3B3FA35
:100BA80083F303F1845303F584139B0000221A6036
:100BB80000F084FB05464FF0007393FAA3F32D4B26
:100BC80019684FF0007393FAA3F3B3FA83F303F0B1
:100BD8001F03012202FA03F3194206D000F06EFB4C
:100BE800401B0228E7D903203DE022494B6823F443
:100BF8007413626A206A024313434B604FF0807398
:100C080093FAA3F3B3FA83F303F1845303F584133C
:100C18009B0001221A6000F051FB04464FF000735C
:100C280093FAA3F3134B19684FF0007393FAA3F3E5
:100C3800B3FA83F303F01F03012202FA03F3194204
:100C480006D100F03BFB001B0228E7D903200AE08D
:100C5800002008E0002006E0012004E0032002E074
:100C6800032000E0002002B070BD0120FBE700BFB8
:100C78002C27000800100240164B5B6803F00C029A
:100C8800082A24D103F470114FF4701292FAA2F2D8
:100C9800B2FA82F221FA02F20F49885C0D4AD26A4E
:100CA80002F00F020F2191FAA1F1B1FA81F1CA40C5
:100CB8000A498A5C13F4803F03D1094B03FB00F017
:100CC8007047084BB3FBF2F303FB00F0704705488D
:100CD800704700BF0010024064270008742700080E
:100CE80000093D0000127A0070B50D460446C0B1F7
:100CF800236813F00F0F1AD0022D1ED89B4B1B68C8
:100D080003F007039D421ED9984A136823F007038E
:100D18002B431360136803F007039D4213D001208F
:100D280070BD40F277219248FFF7DAFBE0E74FF415
:100D38001E718F48FFF7D4FBDEE740F279218C481B
:100D4800FFF7CEFBDAE7236813F0020F1DD0A36884
:100D5800A3B1802B12D0902B10D0A02B0ED0B02B8B
:100D68000CD0C02B0AD0D02B08D0E02B06D0F02B0B
:100D780004D04FF424717E48FFF7B2FB7D4A5368D4
:100D880023F0F003A1680B435360236813F0010FAD
:100D980000F084806368022B32D86368012B35D059
:100DA800022B48D0022292FAA2F2724A106802225A
:100DB80092FAA2F2B2FA82F202F01F02012101FABB
:100DC80002F2104200F0D0806A494A6822F0030219
:100DD80013434B6000F072FA06466368012B3FD05C
:100DE800022B4CD0634B5B6813F00C0F56D000F00D
:100DF80065FA801B41F288339842F3D9032070BD0D
:100E080040F297215A48FFF76BFBC6E74FF40032D0
:100E180092FAA2F2574A10684FF4003292FAA2F2FC
:100E2800B2FA82F202F01F02012101FA02F2104224
:100E3800CAD1012070BD4FF0007292FAA2F24D4A59
:100E480010684FF0007292FAA2F2B2FA82F202F03F
:100E58001F02012101FA02F21042B5D1012070BD32
:100E6800444B5B6803F00C03042B17D000F026FA00
:100E7800801B41F288339842F2D9032070BD3D4B64
:100E88005B6803F00C03082B08D000F017FA801BEE
:100E980041F288339842F2D9032070BD334B1B6866
:100EA80003F007039D420CD2304A136823F007036E
:100EB8002B431360136803F007039D4201D0012000
:100EC80070BD236813F0040F19D0E36883B1B3F53C
:100ED800806F0DD0B3F5A06F0AD0B3F5C06F07D0FF
:100EE800B3F5E06F04D040F2E9212148FFF7F8FAA2
:100EF800204A536823F4E063E1680B435360236896
:100F080013F0080F1AD0236983B1B3F5806F0DD0A1
:100F1800B3F5A06F0AD0B3F5C06F07D0B3F5E06F93
:100F280004D04FF43C711248FFF7DAFA114A5368BB
:100F380023F46053216943EAC1035360FFF79CFE21
:100F48000C4B5B6803F0F003F02292FAA2F2B2FABB
:100F580082F2D340084AD35CD840084B186000207E
:100F680000F07CF9002070BD012070BD0020024017
:100F78002C270008001002409C28000804000020CC
:100F8800014B1868704700BF0400002008B5FFF740
:100F9800F7FF074B5B6803F4E0634FF4E06292FAF3
:100FA800A2F2B2FA82F2D340024AD35CD84008BD1A
:100FB80000100240AC28000808B5FFF7E1FF074B16
:100FC8005B6803F460534FF4605292FAA2F2B2FAEB
:100FD80082F2D340024AD35CD84008BD00100240D8
:100FE800AC28000810B50446C31E042B0FD80A4AC3
:100FF800D36823F4E0631B041B0C240204F4E064AC
:10100800234343F0BF6343F40033D36010BDBC21D6
:101018000248FFF765FAEAE700ED00E084270008D8
:1010280070B505460C4616460F2A24D80F2C27D82B
:101038001A4BDB68C3F30223C3F10702042A28BF53
:101048000422191D062920D9033B012101FA02F2C5
:10105800013A14409C4001FA03F3013B33401C431E
:10106800002D14DB2401E4B205F1604505F5614566
:1010780085F8004370BDD4210948FFF731FAD5E758
:10108800D5210748FFF72CFAD2E70023DDE705F062
:101098000F052401E4B2034B5C5570BD00ED00E080
:1010A8008427000814ED00E010B5041E09DB62096E
:1010B80004F01F04012303FA04F4044B43F822400C
:1010C80010BDE8210248FFF70BFAF0E700E100E065
:1010D800842700080138B0F1807F0AD2064B586097
:1010E800F021064A82F823100020986007221A602F
:1010F80070470120704700BF10E000E000ED00E0FD
:1011080010B50446042800D038B9042C0BD0094A7D
:10111800136823F00403136010BD40F2E111064880
:10112800FFF7DEF9F1E7034A136843F0040313609D
:1011380010BD00BF10E000E084270008704708B524
:10114800FFF7FCFF08BD70B4C56B066C0124B44002
:101158006C60046863604368102B05D0036899606D
:101168000368DA6070BC704703689A600368D960E6
:10117800F8E70000F8B504460E4617461D465A1E05
:101188004FF6FE739A420FD894F82030012B3AD0CC
:10119800012384F8203094F82130012B0AD0002351
:1011A80084F820300220F8BD40F25D111748FFF79F
:1011B80097F9E9E7022384F821300023A363226822
:1011C800136823F0010313602B463A463146204644
:1011D800FFF7B9FFE36A5BB12268136843F00E03B7
:1011E80013602268136843F0010313600020F8BD00
:1011F8002268136843F00A0313602268136823F017
:1012080004031360EDE70220F8BD00BFBC27000807
:1012180008B590F82130022B03D004238363012002
:1012280008BD0268136823F00E0313600268136890
:1012380023F001031360C16B036C012202FA03F36C
:101248004B6080F82120002380F82030436B13B1D5
:101258009847002008BD002008BD000010B50446CE
:10126800074B1868074BA3FB00308009FFF732FFD4
:10127800002221464FF0FF30FFF7D2FE002010BDBC
:1012880004000020D34D621008B5074A136843F0E4
:10129800100313600320FFF7A5FE0020FFF7DEFF11
:1012A80000F000FC002008BD00200240024A13683C
:1012B80001331360704700BFA0000020014B18687D
:1012C800704700BFA000002030B583B00190FFF741
:1012D800F5FF0546019CB4F1FF3F00D00134FFF74C
:1012E800EDFF401BA042FAD303B030BD2DE9F04713
:1012F80082B005460C46B0F1904F16D0A54B9842E7
:1013080013D003F5806398420FD003F580639842A9
:101318000BD003F58063984207D003F580639842A9
:1013280003D0C3219C48FFF7DBF823689AB212B1B7
:101338001B0C1B041BB1C4219748FFF7D1F8636845
:10134800012B22D9112B20D0022B1ED0122B1CD0FE
:10135800924A934219D002F58012934215D002F5B1
:101368008012934211D0A2F5F81293420DD002F5E3
:101378008012934209D002F58012934205D0032BC4
:1013880003D0C5218448FFF7ABF8A368022B01D826
:101398000026C1E0C6218048FFF7A2F8F8E7B5F1BA
:1013A800904F16D07B4B9D4213D003F580639D422E
:1013B8000FD003F580639D420BD003F580639D42F7
:1013C80007D003F580639D4203D0D5217248FFF70B
:1013D80087F823690C2B07D90E2B05D00F2B03D0C8
:1013E800D6216D48FFF77CF8F208083255F822300C
:1013F80006F0070189000F20884023EA00032069CE
:1014080000FA01F10B4345F8223097E0E368012B1D
:1014180005D9032B03D0EA215F48FFF761F8AB68D1
:1014280008EA0303E26802FA0AF21343AB606B6846
:1014380023EA09096368C3F30013B34049EA0303C5
:101448006B60EB6808EA0308A36803FA0AF348EA42
:101458000303EB60636813F0805F5CD0504B9A69BC
:1014680042F001029A619B6903F001030193019B19
:10147800B208911C4B4B53F8213006F00301890048
:101488000F20884023EA0003B5F1904F76D04148F9
:10149800854275D000F58060854273D000F5806084
:1014A800854271D000F58060854265D0052000FA3C
:1014B80001F10B4302323B4941F822303A4B1A689A
:1014C800FB4302EA0301606810F4803F01D047EA59
:1014D8000201354A1160526803EA0201606810F49B
:1014E800003F01D047EA02012F4A5160926803EA9F
:1014F8000201606810F4801F01D047EA02012A4AFD
:101508009160D2681340616811F4001F01D047EA66
:101518000203254AD3600136276837FA06F335D027
:101528004FF0010909FA06F917EA0907F3D06368C9
:10153800022B3FF434AF122B3FF431AF2B684FEA44
:10154800460A4FF0030808FA0AF86FEA080803EA9F
:101558000803626802F0030202FA0AF213432B60DE
:1015680063685A1E012A7FF651AF112B3FF44EAF24
:10157800122B7FF466AF49E7042098E7002096E72E
:10158800012094E7022092E7032090E702B0BDE82B
:10159800F08700BF00040048F4270008000011107D
:1015A80000100240000001400004014038B5054623
:1015B8000C4621B12B691C4207D1002038BD4FF4DD
:1015C800C8710348FEF78CFFF4E7012038BD00BF5F
:1015D800F427000870B5054614460E4649B1012C9B
:1015E80004D940F2B1110748FEF77AFF3CB9AE6260
:1015F80070BD4FF4D8710348FEF772FFEFE7AE6194
:1016080070BD00BFF427000838B505460C4621B95F
:101618004FF4E3710348FEF763FF6B695C406C614C
:1016280038BD00BFF42700087047000008B5054B17
:101638005B69034200D108BD024B5861FFF7F4FF14
:10164800F9E700BF00040140F0B583B00446036821
:10165800B3F54D3F80F0C581236813F4803F57D020
:10166800636863B1B3F5807F09D0B3F5007F06D016
:10167800B3F5407F03D08321A448FEF731FFA44B84
:10168800DB6913F0805F40F0B181A14BDA6942F069
:101698008052DA61DB6903F080530193019B0125D5
:1016A8009C4B1B6813F4807F00F0A281984B1B6A47
:1016B80013F4407322D0626802F4407293421DD042
:1016C8009348016A21F440764FF4803393FAA3F2E9
:1016D800B2FA82F2904F3A4492004FF0010EC2F8EB
:1016E80000E093FAA3F3B3FA83F33B449B00002290
:1016F8001A60066211F0010F40F08F81844A136A64
:1017080023F4407361680B431362002D40F0B181EC
:10171800236813F0010F0AD0A368032B00F2AE81EF
:101728007B4A136B23F00303A1680B4313632368FD
:1017380013F0020F15D0E36863B1B3F5803F09D009
:10174800B3F5003F06D0B3F5403F03D0D5216F482D
:10175800FEF7C6FE6E4A136B23F44033E1680B4371
:101768001363236813F0040F15D0236963B1B3F52D
:10177800802F09D0B3F5002F06D0B3F5402F03D042
:10178800E1216248FEF7ACFE614A136B23F4402363
:1017980021690B431363236813F0200F0ED0E3690C
:1017A8002BB1102B03D0EC215848FEF799FE584A6C
:1017B800136B23F01003E1690B431363236813F4DD
:1017C800003F0DD0A36BB3F5800F02D0002B40F083
:1017D8005A814F4A536823F48003A16B0B4353602B
:1017E800236813F0400F0FD0236A33B1202B04D0A5
:1017F8004FF487714548FEF773FE454A136B23F093
:101808002003216A0B431363236813F0080F16D0D3
:1018180063696BB1B3F5801F0AD0B3F5001F07D019
:10182800B3F5401F04D040F22F113848FEF758FE98
:10183800374A136B23F4401361690B43136323681E
:1018480013F0100F16D0A3696BB1B3F5800F0AD04F
:10185800B3F5000F07D0B3F5400F04D040F23911AB
:101868002A48FEF73DFE2A4A136B23F44003A16978
:101878000B431363236813F4007F10D0E36A3BB172
:10188800B3F5000F04D040F249112048FEF728FEB6
:101898001F4A536823F40003E16A0B43536023682B
:1018A80013F0800F3AD0636A43B3B3F5807F25D035
:1018B800B3F5887F22D0B3F5907F1FD0B3F5987F1A
:1018C8001CD0B3F5A07F19D0B3F5A87F16D0B3F517
:1018D800B07F13D0B3F5B87F10D0B3F5C07F0DD06B
:1018E800B3F5C87F0AD0B3F5D07F07D0B3F5D87F5A
:1018F80004D040F269110548FEF7F2FD044AD36AA4
:1019080023F4F873616A0B43D36207E02C280008BC
:10191800001002400070004000819010236813F40A
:10192800807F31D0A36A43B3B3F5005F25D0B3F508
:10193800085F22D0B3F5105F1FD0B3F5185F1CD035
:10194800B3F5205F19D0B3F5285F16D0B3F5305F33
:1019580013D0B3F5385F10D0B3F5405F0DD0B3F5B1
:10196800485F0AD0B3F5505F07D0B3F5585F04D08D
:101978004FF4BD714848FEF7B3FD484AD36A23F4D3
:101988007853A16A0B43D362236813F4805F10D0A5
:10199800236B3BB1B3F5807F04D04FF4CD713E4843
:1019A800FEF79EFD3D4A136B23F48073216B0B43B6
:1019B8001363236813F4005F6CD0636B3BB1B3F51A
:1019C800007F04D04FF4D6713348FEF789FD334ABF
:1019D800136B23F40073616B0B431363002003B094
:1019E800F0BD7D212C48FEF77BFD35E6002557E646
:1019F8002B4A136843F480731360FFF75FFC0646B5
:101A0800274B1B6813F4807F7FF450AEFFF756FC1A
:101A1800801B6428F4D90320E1E7FFF74FFC064652
:101A280015E01E4B196A022393FAA3F3B3FA83F362
:101A380003F01F03012202FA03F319427FF45EAE9A
:101A4800FFF73CFC801B41F28833984220D80223E0
:101A580093FAA3F293FAA3F3B3FA83F35B0943F07F
:101A68000203022BDDD0022393FAA3F30B4B596A2E
:101A7800D9E7D36923F08053D36149E6CA210648E0
:101A8800FEF72EFD4CE6FA210348FEF729FDA0E6F5
:101A98000320A4E70020A2E72C2800080010024039
:101AA8000070004000B583B01C4B9A6942F00102F7
:101AB8009A619B6903F001030193019B0320FFF7DF
:101AC80091FA002211466FF00B00FFF7A9FA0022E5
:101AD80011466FF00A00FFF7A3FA002211466FF0D3
:101AE8000900FFF79DFA002211466FF00400FFF786
:101AF80097FA002211466FF00300FFF791FA0022CF
:101B080011466FF00100FFF78BFA002211464FF0E3
:101B1800FF30FFF785FA03B05DF804FB00100240C0
:101B28000268154B9A4200D0704700B587B003F59C
:101B3800E633DA6942F40032DA61DB6903F4003330
:101B48000093009B0C230193022302930123039328
:101B5800032304930723059301A94FF09040FFF74F
:101B6800C5FB002211462620FFF75AFA2620FFF768
:101B78009BFA07B05DF804FB004400400268136854
:101B880023F0C0031360202380F86930704702688F
:101B9800136823F4907313600268936823F00103B9
:101BA8009360202380F86A307047000038B590F8B9
:101BB8006A40E4B2202C01D0022038BD002938D078
:101BC800002A38D090F86830012B01D1022038BDA6
:101BD80013460446012280F868204165A0F8583071
:101BE8000025C566222280F86A20426E1349916258
:101BF800426E1349D162426E12491163426E5563B7
:101C08000168426D2431406EFFF7B4FA84F86850D9
:101C18002268136843F4807313602268936843F062
:101C2800010393602268936843F040039360284659
:101C380038BD012038BD012038BD00BF531C000845
:101C4800951C00089F1C0008704708B5436A026885
:101C5800126812F0200F14D10022A3F85A20196834
:101C68000A6822F480720A6019688A6822F0010200
:101C78008A6019688A6822F040028A60202283F804
:101C88006A201846FEF750FB08BD704708B5406A41
:101C9800FFF7FBFF08BD10B5446A94F86930DBB262
:101CA800212B0CD094F86A30DBB2222B13D0E36ED0
:101CB80043F01003E3662046FEF744FB10BD23689B
:101CC8009B6813F0800FEDD00023A4F85230204613
:101CD800FFF754FFE6E723689B6813F0400FE6D050
:101CE8000023A4F85A302046FFF751FFDFE708B574
:101CF800406A0023A0F85A30A0F85230FEF722FBC1
:101D080008BD000038B5044642689D4B9A4200F26F
:101D18009880A3683BB1B3F5805F04D040F63A01E0
:101D28009848FEF7DDFBE368B3F5805F0BD053B14D
:101D3800B3F5405F07D0B3F5005F04D040F63B0130
:101D48009048FEF7CDFB236953B1B3F5806F07D0F8
:101D5800B3F5C06F04D040F63C018A48FEF7C0FBDB
:101D6800636933F00C0200D123B940F63D01854880
:101D7800FEF7B6FBA3696BB1B3F5807F0AD0B3F564
:101D8800007F07D0B3F5407F04D040F63E017D4880
:101D9800FEF7A6FB236A3BB1B3F5006F04D040F60B
:101DA8003F017848FEF79CFBE3693BB1B3F5004F70
:101DB80004D04FF404617348FEF792FBA3682269CC
:101DC800134362691343E269134321680A6822F4E2
:101DD800164222F00C0213430B602268536823F466
:101DE8004053E1680B435360A369226A1343216897
:101DF8008A6822F4306213438B602568624B9D42E7
:101E080025D0624B9D4235D0614B9D424CD0614BF1
:101E18009D4263D0604B9D427AD01023E269B2F5AF
:101E2800004F00F09180082B00F21C81DFE813F0CE
:101E3800E300EE00F9001A0105011A011A011A015E
:101E4800100140F639014F48FEF74AFB61E703F5F8
:101E580058431B6B03F00303032B09D8DFE803F097
:101E6800020406720123D9E70423D7E70823D5E73C
:101E78001023D3E703F5E6331B6B03F44033B3F5C4
:101E8800803F0BD007D9B3F5003F09D0B3F5403FE9
:101E980008D10223C2E72BB90023BFE70423BDE71B
:101EA8000823BBE71023B9E703F5E4331B6B03F4FE
:101EB8004023B3F5802F0BD007D9B3F5002F09D0F5
:101EC800B3F5402F08D10223A8E72BB90023A5E7D3
:101ED8000423A3E70823A1E710239FE703F5E233D0
:101EE8001B6B03F44013B3F5801F0BD007D9B3F570
:101EF800001F09D0B3F5401F08D102238EE72BB984
:101F080000238BE7042389E7082387E7102385E765
:101F180003F5E0331B6B03F44003B3F5800F0BD0DC
:101F280007D9B3F5000F09D0B3F5400F08D1022344
:101F380074E72BB9002371E704236FE708236DE7E3
:101F480010236BE7022369E7082B51D8DFE803F079
:101F5800052631503C5050504700FFF717F862688B
:101F6800530803EB4003B3FBF2F39BB2002023F0CA
:101F78000F02C3F3420313432268D36038BD00BF86
:101F8800405489006428000800380140004400409B
:101F980000480040004C004000500040FFF70CF89B
:101FA8006268530803EB4003B3FBF2F39BB20020D3
:101FB800DDE76268530803F5740303F51053B3FBB8
:101FC800F2F39BB20020D2E7FEF756FE6268530890
:101FD80003EB4003B3FBF2F39BB20020C7E7626850
:101FE800530803F58033B3FBF2F39BB20020BEE73E
:101FF80001200023BBE7FEF7C9FF636800EB53002D
:10200800B0FBF3F080B2E860002038BDFEF7D4FFE3
:10201800636800EB5300B0FBF3F080B2E860002087
:1020280038BD6268530803F5F40303F59053B3FB16
:10203800F2F39BB2EB60002038BDFEF71DFE63682B
:1020480000EB5300B0FBF3F080B2E860002038BD2D
:102058006268530803F50043B3FBF2F39BB2EB60ED
:10206800002038BD012038BD10B50446436AFF2B57
:1020780000F2BE80636A13F0010F10D0A36A3BB16F
:10208800B3F5003F04D040F6A7016848FEF728FAE8
:102098002268536823F40033A16A0B435360636AD0
:1020A80013F0020F10D0E36A3BB1B3F5803F04D0C0
:1020B80040F6AE015D48FEF713FA2268536823F430
:1020C8008033E16A0B435360636A13F0040F10D046
:1020D800236B3BB1B3F5802F04D040F6B5015348CC
:1020E800FEF7FEF92268536823F48023216B0B4323
:1020F8005360636A13F0080F10D0636B3BB1B3F5FC
:10210800004F04D040F6BC014848FEF7E9F92268C0
:10211800536823F40043616B0B435360636A13F005
:10212800100F10D0A36B3BB1B3F5805F04D040F61D
:10213800C3013E48FEF7D4F92268936823F480531C
:10214800A16B0B439360636A13F0200F10D0E36B0D
:102158003BB1B3F5005F04D040F6CA013348FEF73F
:10216800BFF92268936823F40053E16B0B43936033
:10217800636A13F0400F25D023682D4A93420CD090
:10218800A2F57442934208D002F58062934204D0CB
:1021980040F6D1012548FEF7A3F9236C3BB1B3F50E
:1021A800801F04D040F6D2012048FEF799F9226832
:1021B800536823F48013216C0B435360236CB3F5ED
:1021C800801F1BD0636A13F0800F10D0A36C3BB143
:1021D800B3F5002F04D040F6DF011448FEF780F96C
:1021E8002268536823F40023A16C0B43536010BD8D
:1021F80040F6A2010D48FEF773F93BE7636C6BB13B
:10220800B3F5001F0AD0B3F5800F07D0B3F5C00FA0
:1022180004D040F6D7010548FEF762F922685368F2
:1022280023F4C003616C0B435360CBE764280008B8
:10223800003801402DE9F04105460F4616469846FC
:10224800069C2B68DB6937EA03030CBF01230023D4
:10225800B3421ED1B4F1FF3FF3D02CB1FFF72EF8F3
:10226800A0EB08008442ECD22A68136823F4D073E8
:1022780013602A68936823F001039360202385F88C
:10228800693085F86A30002385F868300320BDE896
:10229800F0810020BDE8F08130B583B0044600230A
:1022A800C366FFF70BF8054623681B6813F0080F91
:1022B8000ED123681B6813F0040F17D1202384F86C
:1022C800693084F86A30002084F8680003B030BDB3
:1022D8006FF07E430093034600224FF4001120461E
:1022E800FFF7A8FF0028E4D00320EFE76FF07E4354
:1022F80000932B4600224FF480012046FFF79AFFF7
:102308000028DBD00320E1E700285FD010B50446A1
:102318008369002B36D003682E4A93420CD0A2F56D
:102328007442934208D002F58062934204D040F28E
:1023380031112948FEF7D4F894F86930002B3BD0C6
:10234800242384F869302268136823F0010313609A
:102358002046FFF7D7FC01283AD0636A93BB22686E
:10236800536823F4904353602268936823F02A0348
:1023780093602268136843F0010313602046FFF757
:102388008BFF10BD0368134A9342D5D0A2F574425F
:102398009342D1D002F580629342CDD002F580629B
:1023A8009342C9D002F580629342C5D04FF49B7125
:1023B8000948FEF795F8BFE784F868302046FFF72C
:1023C800AFFBBDE72046FFF74FFEC8E70120704787
:1023D80010BD00BF003801406428000890F869303B
:1023E800DBB2212B01D002207047B0F852309BB2EB
:1023F80093B18368B3F5805F1AD00268C36C591C27
:10240800C1641B781385B0F852309BB2013B9BB274
:10241800A0F85230002070470268136823F0800348
:1024280013600268136843F040031360002070478C
:102438000369002BE1D1C36C02681B88C3F308034E
:102448001385C36C0233C364DDE708B501680B6804
:1024580023F040030B60202380F86930FFF7F4FB7A
:10246800002008BDB0F85C2090F86A30DBB2222B5F
:1024780006D00268936943F008039361022070470D
:1024880010B503689B8C9BB28168B1F5805F0FD053
:10249800416D4C1C4465D2B21A400A70B0F85A30EB
:1024A8009BB2013B9BB2A0F85A305BB1002010BD33
:1024B80001690029ECD1416D1A400A80436D02334D
:1024C8004365EBE70268136823F4907313600268AE
:1024D800936823F001039360202380F86A30FDF7A6
:1024E80023FF002010BD000038B504460268D369F8
:1024F800116813F00F0505D113F0200F02D011F069
:10250800200F60D19068002D72D010F0010502D123
:1025180011F4907F6CD013F0010F07D011F4807F75
:1025280004D001201062E26E0243E26613F0020F4B
:1025380007D035B1226802201062E26E42F0040230
:10254800E26613F0040F07D035B122680420106248
:10255800E26E42F00202E26613F0080F09D011F0B1
:10256800200F00D12DB1226808201062E26E0243CC
:10257800E266E26E002A4DD013F0200F02D011F06F
:10258800200F23D1E36E13F0080F04D123689B6852
:1025980013F0400F26D02046FFF7F9FA23689A680F
:1025A80012F0400F1AD09A6822F040029A60636EC7
:1025B80083B1234A5A63606EFEF72AFE50B3606EF9
:1025C800436B984738BDFFF74DFF38BD2046FFF7EE
:1025D80049FFD7E72046FDF7B5FE38BD2046FDF791
:1025E800B1FE38BD2046FDF7ADFE0023E36638BDD9
:1025F80013F4801F02D010F4800F0CD113F0800F59
:1026080002D011F0800F12D113F0400F02D011F058
:10261800400F10D138BD4FF480131362202384F883
:10262800693084F86A302046FDF78CFF38BD2046B3
:10263800FFF7D4FE38BD2046FFF707FFEAE700BFE3
:10264800F71C00081549D1F8883043F47003C1F825
:102658008830134B1A6842F001021A605868114A10
:1026680002405A601A6822F0847222F480321A609A
:102678001A6822F480221A605A6822F4FE025A600C
:10268800DA6A22F00F02DA62186B074A02401A630C
:1026980000229A604FF000638B60704700ED00E005
:1026A800001002400CC07FF8CCFC00FFDFF834D0EB
:1026B800002103E00C4B5B58435004310B480C4B92
:1026C80042189A42F6D30B4A02E0002342F8043B30
:1026D800094B9A42F9D3FFF7B5FFFDF7A3FDFDF7C4
:1026E800B1FEFEE700A00020BC2800080000002082
:1026F8000800002008000020A4000020FEE70000D9
:10270800F8B500BFF8BC08BC9E467047F8B500BFD6
:08271800F8BC08BC9E467047A6
:102720005372632F6D61696E2E6300004472697687
:102730006572732F53544D3332463378785F484176
:102740004C5F4472697665722F5372632F73746D98
:102750003332663378785F68616C5F7263632E63CF
:102760000000000002030405060708090A0B0C0D0F
:102770000E0F10100102030405060708090A0B0CCE
:102780000D0E0F10447269766572732F53544D33DA
:1027900032463378785F48414C5F4472697665729F
:1027A0002F5372632F73746D3332663378785F689A
:1027B000616C5F636F727465782E63004472697632
:1027C0006572732F53544D3332463378785F4841E6
:1027D0004C5F4472697665722F5372632F73746D08
:1027E0003332663378785F68616C5F646D612E6345
:1027F00000000000447269766572732F53544D33A4
:1028000032463378785F48414C5F4472697665722E
:102810002F5372632F73746D3332663378785F6829
:10282000616C5F6770696F2E6300000044726976A7
:102830006572732F53544D3332463378785F484175
:102840004C5F4472697665722F5372632F73746D97
:102850003332663378785F68616C5F7263635F659B
:10286000782E6300447269766572732F53544D332A
:1028700032463378785F48414C5F447269766572BE
:102880002F5372632F73746D3332663378785F68B9
:10289000616C5F756172742E6300000000000000BF
:1028A0000000000001020304060708090000000000
:0428B000010203041A
:0428B400F501000822
:0428B800CD01000846
:0828BC005200000000127A0036
:04000005080026B514
:00000001FF
