:020000040800F2
:1000000000A00020A11E00083B0400083D040008D9
:100010003F040008410400084304000800000000F9
:10002000000000000000000000000000450400087F
:100030004704000800000000490400084B040008C1
:10004000F11E0008F11E0008F11E0008F11E000854
:10005000F11E0008F11E000857040008F11E0008F8
:10006000F11E0008F11E000861040008F11E0008DE
:10007000F11E0008F11E0008F11E0008F11E000824
:10008000F11E0008F11E0008F11E0008F11E000814
:10009000F11E0008F11E0008F11E0008F11E000804
:1000A000F11E0008F11E0008F11E0008F11E0008F4
:1000B0006D040008F11E0008F11E0008F11E000882
:1000C000F11E0008F11E0008F11E0008F11E0008D4
:1000D000F11E0008F11E0008F11E0008F11E0008C4
:1000E000F11E0008F11E0008F11E0008F11E0008B4
:1000F000F11E0008F11E0008F11E0008F11E0008A4
:10010000000000000000000000000000F11E0008D8
:10011000F11E0008F11E0008F11E0008F11E000883
:10012000F11E0008F11E0008F11E0008F11E000873
:10013000F11E0008F11E0008000000000000000091
:10014000F11E0008F11E0008F11E0008000000006A
:10015000000000000000000000000000000000009F
:100160000000000000000000F11E0008F11E000861
:10017000F11E000800000000000000000000000068
:0801800000000000F11E000860
:10018800044B05481B1A062B02D9044B03B1184728
:10019800704700BF07000020040000200000000096
:1001A80005490648091A891001EBD171491002D096
:1001B800034B03B1184770470400002004000020D7
:1001C8000000000010B5064C237843B9FFF7D8FFAC
:1001D800044B13B10448AFF300800123237010BD12
:1001E8000400002000000000F41E000808B5084BB9
:1001F8001BB108490848AFF300800848036813B9E1
:10020800BDE80840CCE7064B002BF9D09847F7E744
:100218000000000008000020F41E00080400002070
:100228000000000070B50F4E0F4D761BB61018BFBA
:10023800002405D0013455F8043B9847A642F9D16B
:100248000A4E0B4D761B01F051FEB61018BF002464
:1002580006D0013455F8043B9847A642F9D170BD41
:1002680070BD00BF602000086020000864200008FE
:1002780060200008F0B589B0294B5A6942F4003271
:100288005A615A6902F400320192019A5A6942F499
:1002980000125A615B6903F400130293029B002267
:1002A80004214FF0904000F03BFF1E4F00224FF416
:1002B8007F41384600F034FF112303931A4B04930F
:1002C8000226059603A94FF0904000F0C9FD0423CB
:1002D80003930124049405960025069503A94FF07D
:1002E800904000F0BDFD4FF47F43039304940596BE
:1002F800069503A9384600F0B3FD2A462146062094
:1003080000F01AFD062000F05BFD2A4621460A206F
:1003180000F012FD0A2000F053FD09B0F0BD00BF47
:10032800001002400010004800001110FEE7000015
:1003380000B589B017484FF0804303603F234360FE
:10034800002383606722C26003618023836100F019
:10035800EFF998B908A94FF4805341F8103D0D48BA
:1003680000F05EFA70B900230193039301A90948CC
:1003780001F0B4FC50B909B05DF804FBAF210648A0
:10038800FFF7D4FFB5210448FFF7D0FFBC2102488E
:10039800FFF7CCFF200000200C1F000800B591B02B
:1003A8000223069301220A9210220B920D93002336
:1003B8000E934FF460130F9306A800F06DFF08BB6F
:1003C8000F23019302210291002303934FF48062CB
:1003D8000492059301A801F02FFBB8B901F078FC4D
:1003E8000C4BA3FB0030800900F000FD042000F056
:1003F80013FD002211464FF0FF3000F09DFC11B0B4
:100408005DF804FB83210448FFF790FF912102481F
:10041800FFF78CFFD34D62100C1F000808B500F0E1
:100428001BFFFFF7BBFFFFF725FFFFF781FFFEE785
:1004380070477047FEE7FEE7FEE7FEE77047704744
:10044800704708B500F01AFF00F005FD08BD08B5B3
:10045800012000F081FE08BD08B5102000F07CFEE8
:1004680008BD000008B5024800F038F808BD00BF14
:100478002000002010B4036A046A24F00104046216
:10048800846924F0F00444EA021223F00A030B43BF
:10049800826103625DF8044B704710B4036A23F06D
:1004A800100303628469036A24F4704444EA023244
:1004B80023F0A00343EA0113826103625DF8044B51
:1004C8007047836823F0700341F007010B43836092
:1004D80070477047704770477047704710B50446BB
:1004E80003681A6912F0020F11D0DA6812F0020FCD
:1004F8000DD06FF002021A610123037703689B692C
:1005080013F0030F79D0FFF7E6FF00232377236862
:100518001A6912F0040F12D0DA6812F0040F0ED024
:100528006FF004021A610223237723689B6913F48E
:10053800407F68D02046FFF7CEFF0023237723684B
:100548001A6912F0080F12D0DA6812F0080F0ED0EC
:100558006FF008021A61042323772368DB6913F01C
:10056800030F57D02046FFF7B6FF002323772368F1
:100578001A6912F0100F12D0DA6812F0100F0ED0AC
:100588006FF010021A61082323772368DB6913F4DC
:10059800407F46D02046FFF79EFF0023237723683D
:1005A8001A6912F0010F03D0DA6812F0010F3FD177
:1005B80023681A6912F0800F03D0DA6812F0800FEE
:1005C8003DD123681A6912F4807F03D0DA6812F0EB
:1005D800800F3BD123681A6912F0400F03D0DA6804
:1005E80012F0400F39D123681A6912F0200F03D096
:1005F800DA6812F0200F37D110BDFFF76BFF2046E5
:10060800FFF76AFF81E72046FFF764FF2046FFF700
:1006180063FF92E72046FFF75DFF2046FFF75CFF88
:10062800A3E72046FFF756FF2046FFF755FFB4E73C
:100638006FF001021A612046FFF74BFFB8E76FF031
:1006480080021A61204601F0F0FBBAE76FF480726D
:100658001A61204601F0EAFBBCE76FF040021A611C
:100668002046FFF73AFFBEE76FF020021A612046E6
:1006780001F0DAFBC0E7000003682C4A90420ED074
:10068800B0F1804F0BD0A2F59432904207D002F51A
:100698008062904203D002F59632904203D123F053
:1006A80070034A681343214A90421AD0B0F1804F30
:1006B80017D0A2F59432904213D002F5806290428E
:1006C8000FD002F5963290420BD002F5406290426C
:1006D80007D002F58062904203D002F58062904212
:1006E80003D123F44073CA68134323F080034A6993
:1006F800134303608B68C3620B6883620B4B984299
:100708000FD003F5006398420BD003F5406398427D
:1007180007D003F58063984203D003F580639842BD
:1007280001D10B690363012343617047002C014029
:10073800002863D010B504460368314A934226D096
:10074800B3F1804F23D0A2F5943293421FD002F523
:10075800806293421BD002F50062934217D002F5E3
:100768008062934213D002F5903293420FD002F583
:10077800406293420BD002F58062934207D002F5A3
:100788008062934203D0D1211E48FFF751FEA3682F
:100798005BB1102B09D0202B07D0402B05D0602B44
:1007A80003D0D2211748FFF743FE23694BB1B3F5B5
:1007B800807F06D0B3F5007F03D0D3211148FFF71F
:1007C80037FEA3692BB1802B03D0D4210D48FFF746
:1007D8002FFE94F83D305BB1022384F83D30211D93
:1007E8002068FFF749FF012384F83D30002010BD41
:1007F80084F83C30204600F0FBFCEDE70120704710
:10080800002C0140181F000810B4846824F47F44A9
:1008180042EA032319430C4384605DF8044B704794
:1008280038B590F83C30012B00F062820D46044642
:10083800012380F83C30022380F83D300B68B3F583
:10084800805F16D0B3F5005F13D093B1102B10D092
:10085800202B0ED0302B0CD0402B0AD0502B08D098
:10086800602B06D0702B04D04FF47B61B648FFF79D
:10087800DFFD22689168B54B0B4093602B68402BD5
:1008880000F0B78142D9702B00F0158100F28D80FD
:10089800502B00F06B81602B40F006812368AC4A36
:1008A800934217D0B3F1804F14D0A2F594329342FB
:1008B80010D002F5806293420CD002F59632934232
:1008C80008D002F54062934204D041F202019E48EA
:1008D800FFF7AEFD6B68B3F5004F09D043B1022BAB
:1008E80006D00A2B04D041F205019748FFF7A0FD76
:1008F800EB680F2B00F27781EA6869682068FFF7D8
:10090800CCFD60212068FFF7DCFDCDE0102B00F066
:10091800AD8126D9202B00F0CA81302B40F0C4804D
:1009280023688B4A934217D0B3F1804F14D0A2F5B5
:100938009432934210D002F5806293420CD002F5B3
:100948009632934208D002F54062934204D041F2B5
:1009580038017D48FFF76CFD30212068FFF7B1FDB5
:10096800A2E0002B40F0A0802368794A934217D078
:10097800B3F1804F14D0A2F59432934210D002F50F
:10098800806293420CD002F59632934208D002F569
:100998004062934204D04FF481516B48FFF748FD01
:1009A80000212068FFF78DFD7EE0B3F5805F48D019
:1009B800B3F5005F78D12368654A934213D0B3F149
:1009C800804F10D0A2F5943293420CD002F5806289
:1009D800934208D002F59632934204D040F6DF7174
:1009E8005948FFF725FDAB686BB1B3F5805F0AD0B6
:1009F800B3F5005F07D0B3F5405F04D040F6E2716D
:100A08005148FFF715FD6B68B3F5004F09D043B1A6
:100A1800022B06D00A2B04D040F6E3714A48FFF7B0
:100A280007FDEB680F2B00F29B80EB686A68A968EA
:100A38002068FFF7E9FE2268936843F480439360D7
:100A480032E02368424A934227D0B3F1804F24D042
:100A5800A2F59432934220D002F5806293421CD0D2
:100A680002F50062934218D002F58062934214D0D6
:100A780002F59032934210D002F5406293420CD0B6
:100A880002F58062934208D002F58062934204D056
:100A980040F6BC712C48FFF7CBFC2268936823F41E
:100AA800803323F007039360012384F83D3000204E
:100AB80084F83C0038BD2368254A934213D0B3F12B
:100AC800804F10D0A2F5943293420CD002F5806288
:100AD800934208D002F59632934204D040F6C5718D
:100AE8001948FFF7A5FCAB686BB1B3F5805F0AD076
:100AF800B3F5005F07D0B3F5405F04D040F6C87186
:100B08001148FFF795FC6B68B3F5004F09D043B166
:100B1800022B06D00A2B04D040F6C9710A48FFF709
:100B280087FCEB680F2B15D8EB686A68A968206802
:100B3800FFF76AFE2268936823F4803323F0770373
:100B480043F077039360AFE7181F00088800FEFFA3
:100B5800002C014040F6CA716648FFF769FCE3E7DC
:100B680040F6E4716348FFF763FC5EE72368624A76
:100B7800934217D0B3F1804F14D0A2F59432934228
:100B880010D002F5806293420CD002F5963293425F
:100B980008D002F54062934204D040F6F3715548FC
:100BA800FFF746FC6B68B3F5004F09D043B1022B41
:100BB80006D00A2B04D040F6F6714E48FFF738FCF1
:100BC800EB680F2B09D8EA6869682068FFF752FCC0
:100BD80050212068FFF775FC66E740F6F771454835
:100BE800FFF726FCEFE741F206014248FFF720FC39
:100BF80082E62368404A934217D0B3F1804F14D05D
:100C0800A2F59432934210D002F5806293420CD040
:100C180002F59632934208D002F54062934204D01E
:100C280041F211013348FFF703FC6B68B3F5004F3D
:100C380009D043B1022B06D00A2B04D041F214018B
:100C48002C48FFF7F5FBEB680F2B09D8EA686968B1
:100C58002068FFF70FFC40212068FFF732FC23E7EC
:100C680041F215012348FFF7E3FBEFE72368224A27
:100C7800934217D0B3F1804F14D0A2F59432934227
:100C880010D002F5806293420CD002F5963293425E
:100C980008D002F54062934204D041F22801154879
:100CA800FFF7C6FB10212068FFF70BFCFCE6236862
:100CB800114A934217D0B3F1804F14D0A2F5943261
:100CC800934210D002F5806293420CD002F596321E
:100CD800934208D002F54062934204D041F23001B9
:100CE8000448FFF7A5FB20212068FFF7EAFBDBE6B5
:100CF800022038BD181F0008002C014010B504461A
:100D0800C31E042B0FD80A4AD36823F4E0631B04DC
:100D18001B0C240204F4E064234343F0BF6343F450
:100D28000033D36010BDBC210248FFF781FBEAE71E
:100D380000ED00E0501F000870B505460C46164649
:100D48000F2A24D80F2C27D81A4BDB68C3F30223A9
:100D5800C3F10702042A28BF0422191D062920D935
:100D6800033B012101FA02F2013A14409C4001FAC6
:100D780003F3013B33401C43002D14DB2401E4B290
:100D880005F1604505F5614585F8004370BDD4213E
:100D98000948FFF74DFBD5E7D5210748FFF748FB82
:100DA800D2E70023DDE705F00F052401E4B2034B89
:100DB8005C5570BD00ED00E0501F000814ED00E028
:100DC80010B5041E09DB620904F01F04012303FAAD
:100DD80004F4044B43F8224010BDE8210248FFF711
:100DE80027FBF0E700E100E0501F00080138B0F1F0
:100DF800807F0AD2064B5860F021064A82F82310F9
:100E08000020986007221A6070470120704700BFD1
:100E180010E000E000ED00E010B50446042800D022
:100E280038B9042C0BD0094A136823F00403136063
:100E380010BD40F2E1110648FFF7FAFAF1E7034A5C
:100E4800136843F00403136010BD00BF10E000E016
:100E5800501F0008704708B5FFF7FCFF08BD0000E9
:100E68002DE9F04782B005460C46B0F1904F16D0F8
:100E7800A54B984213D003F5806398420FD003F531
:100E8800806398420BD003F58063984207D003F53E
:100E98008063984203D0C3219C48FFF7C9FA2368AE
:100EA8009AB212B11B0C1B041BB1C4219748FFF75F
:100EB800BFFA6368012B22D9112B20D0022B1ED038
:100EC800122B1CD0924A934219D002F580129342F9
:100ED80015D002F58012934211D0A2F5F812934270
:100EE8000DD002F58012934209D002F58012934288
:100EF80005D0032B03D0C5218448FFF799FAA368CE
:100F0800022B01D80026C1E0C6218048FFF790FADD
:100F1800F8E7B5F1904F16D07B4B9D4213D003F5FF
:100F280080639D420FD003F580639D420BD003F58B
:100F380080639D4207D003F580639D4203D0D5218D
:100F48007248FFF775FA23690C2B07D90E2B05D0C9
:100F58000F2B03D0D6216D48FFF76AFAF208083242
:100F680055F8223006F0070189000F20884023EA4F
:100F78000003206900FA01F10B4345F8223097E09D
:100F8800E368012B05D9032B03D0EA215F48FFF75B
:100F98004FFAAB6808EA0303E26802FA0AF213435D
:100FA800AB606B6823EA09096368C3F30013B340B5
:100FB80049EA03036B60EB6808EA0308A36803FACD
:100FC8000AF348EA0303EB60636813F0805F5CD0C0
:100FD800504B9A6942F001029A619B6903F0010340
:100FE8000193019BB208911C4B4B53F8213006F03A
:100FF800030189000F20884023EA0003B5F1904FD0
:1010080076D04148854275D000F58060854273D01E
:1010180000F58060854271D000F58060854265D01A
:10102800052000FA01F10B4302323B4941F8223016
:101038003A4B1A68FB4302EA0301606810F4803FE8
:1010480001D047EA0201354A1160526803EA0201F9
:10105800606810F4003F01D047EA02012F4A51604E
:10106800926803EA0201606810F4801F01D047EA21
:1010780002012A4A9160D2681340616811F4001F86
:1010880001D047EA0203254AD3600136276837FAB8
:1010980006F335D04FF0010909FA06F917EA0907EE
:1010A800F3D06368022B3FF434AF122B3FF431AF17
:1010B8002B684FEA460A4FF0030808FA0AF86FEA65
:1010C800080803EA0803626802F0030202FA0AF257
:1010D80013432B6063685A1E012A7FF651AF112B08
:1010E8003FF44EAF122B7FF466AF49E7042098E730
:1010F800002096E7012094E7022092E7032090E77A
:1011080002B0BDE8F08700BF00040048881F00084F
:1011180000001110001002400000014000040140CE
:1011280070B5054614460E4649B1012C04D940F263
:10113800B1110748FFF77CF93CB9AE6270BD4FF4B6
:10114800D8710348FFF774F9EFE7AE6170BD00BFCF
:10115800881F00087047000008B5054B5B6903420B
:1011680000D108BD024B5861FFF7F4FFF9E700BF53
:101178000004014000B583B01C4B9A6942F001029B
:101188009A619B6903F001030193019B0320FFF718
:10119800B5FD002211466FF00B00FFF7CDFD0022D0
:1011A80011466FF00A00FFF7C7FD002211466FF0E5
:1011B8000900FFF7C1FD002211466FF00400FFF798
:1011C800BBFD002211466FF00300FFF7B5FD0022BA
:1011D80011466FF00100FFF7AFFD002211464FF0F6
:1011E800FF30FFF7A9FD03B05DF804FB00100240D3
:1011F8000368B3F1804F00D0704700B583B003F5A2
:101208000433DA6942F00102DA61DB6903F00103B1
:101218000193019B002201211C20FFF78DFD1C205A
:10122800FFF7CEFD03B05DF804FB000010B50446DF
:10123800074B1868074BA3FB00308009FFF7D6FD62
:10124800002221464FF0FF30FFF776FD002010BD49
:1012580000000020D34D621008B5074A136843F018
:10126800100313600320FFF749FD0020FFF7DEFF9E
:10127800FFF780FF002008BD00200240024A1368E3
:1012880001331360704700BF60000020014B1868ED
:10129800704700BF6000002070B582B00446002887
:1012A8005DD0236813B113F00F0F5ED0236813F0DD
:1012B800010F7CD0636853B1B3F5803F07D0B3F515
:1012C800A02F04D04FF49071B548FFF7B1F8B54B93
:1012D8005B6803F00C03042B52D0B24B5B6803F03D
:1012E8000C03082B47D06368B3F5803F00F0A58056
:1012F800002B40F0A88003F1804303F504331A68FB
:1013080022F480321A601A6822F480221A60A54AF0
:10131800D36A23F00F03A1680B43D3626368002BE1
:1013280000F0AB80FFF7B2FF05464FF4003393FAA5
:10133800A3F39C4B19684FF4003393FAA3F3B3FA61
:1013480083F303F01F03012202FA03F319422ED19B
:10135800FFF79CFF401B6428E7D903202BE340F2EA
:1013680019118F48FFF764F89BE74FF48D718C488B
:10137800FFF75EF89AE78B4B5B6813F4803FB2D0B7
:101388004FF4003393FAA3F3864B19684FF40033F4
:1013980093FAA3F3B3FA83F303F01F03012202FACB
:1013A80003F3194203D06368002B00F0FD82236821
:1013B80013F0020F00F0AD802369012B04D94FF41C
:1013C800AC717748FFF734F863691F2B72D8754BF7
:1013D8005B6813F00C0F78D0724B5B6803F00C035A
:1013E800082B6DD02369002B00F0E080012292FACF
:1013F800A2F3B3FA83F303F1845303F584139B0038
:101408001A60FFF743FF0546022393FAA3F3654BDF
:101418001968022393FAA3F3B3FA83F303F01F03C3
:10142800012202FA03F3194240F0AA80FFF72EFFC7
:10143800401B0228E8D90320BDE25A4A136843F446
:101448008033136063E7B3F5A02F09D0554B1A68B2
:1014580022F480321A601A6822F480221A6056E751
:1014680003F18043A3F53C331A6842F480221A60E2
:101478001A6842F480321A6049E7FFF707FF054609
:101488004FF4003393FAA3F3464B19684FF4003333
:1014980093FAA3F3B3FA83F303F01F03012202FACA
:1014A80003F3194283D0FFF7F1FE401B6428E7D904
:1014B800032080E240F259113948FEF7B9FF86E768
:1014C800384B5B6813F4803F8CD1022393FAA3F363
:1014D800344B1968022393FAA3F3B3FA83F303F0A6
:1014E8001F03012202FA03F3194204D0236993422D
:1014F80001D001205FE22B48036823F0F8036169FB
:10150800F82292FAA2F2B2FA82F201FA02F2134334
:101518000360236813F0080F00F09780A369012B7C
:1015280004D940F299111E48FEF782FFA369002BE7
:1015380063D0012191FAA1F2B2FA82F21A4B134454
:101548009B001960FFF7A2FE0546022393FAA3F257
:1015580093FAA3F293FAA3F2124A516A93FAA3F305
:10156800B3FA83F303F01F03012202FA03F31942CB
:101578006BD1FFF78BFE401B0228E6D903201AE245
:101588000848036823F0F8036169F82292FAA2F286
:10159800B2FA82F201FA02F213430360B9E700BF1C
:1015A800C01F00080010024020819010012393FA08
:1015B800A3F3B3FA83F303F1845303F584139B0075
:1015C80000221A60FFF762FE0546022393FAA3F38E
:1015D800A34B1968022393FAA3F3B3FA83F303F036
:1015E8001F03012202FA03F3194292D0FFF74EFEBD
:1015F800401B0228E9D90320DDE1012292FAA2F278
:10160800B2FA82F2974B13449B0000221A60FFF74C
:101618003DFE0546022393FAA3F293FAA3F293FA46
:10162800A3F28F4A516A93FAA3F3B3FA83F303F050
:101638001F03012202FA03F3194206D0FFF726FE20
:10164800401B0228E6D90320B5E1236813F0040FF4
:1016580000F0BE80E368012B06D9052B04D040F2C8
:10166800C5118148FEF7E4FE7D4BDB6913F0805F0E
:1016780026D17B4BDA6942F08052DA61DB6903F0EC
:1016880080530193019B0125784B1B6813F4807FDD
:1016980018D0E368012B29D073BB03F1804303F50D
:1016A80004331A6A22F001021A621A6A22F004024A
:1016B8001A62E368002B5DD0FFF7E8FD064647E0B5
:1016C8000025E1E7694A136843F480731360FFF764
:1016D800DDFD0646654B1B6813F4807FD9D1FFF703
:1016E800D5FD801B6428F5D9032064E15C4A136AA0
:1016F80043F001031362DCE7052B09D0584B1A6A43
:1017080022F001021A621A6A22F004021A62D0E771
:10171800534B1A6A42F004021A621A6A42F0010232
:101728001A62C6E74E4B196A022393FAA3F3B3FA77
:1017380083F303F01F03012202FA03F3194245D190
:10174800FFF7A4FD801B41F28833984200F22E81F6
:10175800022393FAA3F293FAA3F3B3FA83F35B0990
:1017680043F00203022BDDD0022393FAA3F33C4B90
:10177800596AD9E7FFF78AFD064615E0384B196A1A
:10178800022393FAA3F3B3FA83F303F01F030122AE
:1017980002FA03F3194219D0FFF778FD801B41F2D2
:1017A8008833984200F20481022393FAA3F293FA51
:1017B800A3F3B3FA83F35B0943F00203022BDDD0F2
:1017C800022393FAA3F3264B596AD9E7002D3AD19D
:1017D800E369022B3DD8E369002B00F0EB80204A37
:1017E800526802F00C02082A00F0E780022B3FD072
:1017F8004FF0807393FAA3F3B3FA83F303F184539E
:1018080003F584139B0000221A60FFF73FFD04468E
:101818004FF0007393FAA3F3114B19684FF000735C
:1018280093FAA3F3B3FA83F303F01F03012202FA36
:1018380003F3194200F0B680FFF728FD001B0228C9
:10184800E6D90320B7E0064AD36923F08053D36171
:10185800BEE740F209210448FEF7EAFDBBE700BFF6
:101868000010024020819010C01F00080070004046
:10187800236A3BB1B3F5803F04D040F212215048AF
:10188800FEF7D6FD636A73B3B3F5802F2BD0B3F59B
:10189800002F28D0B3F5402F25D0B3F5801F22D0D4
:1018A800B3F5A01F1FD0B3F5C01F1CD0B3F5E01FC0
:1018B80019D0B3F5001F16D0B3F5101F13D0B3F528
:1018C800201F10D0B3F5301F0DD0B3F5401F0AD03C
:1018D800B3F5501F07D0B3F5601F04D040F21321B1
:1018E8003748FEF7A5FD4FF0807393FAA3F3B3FAD8
:1018F80083F303F1845303F584139B0000221A60D9
:10190800FFF7C4FC05464FF0007393FAA3F32D4B81
:1019180019684FF0007393FAA3F3B3FA83F303F053
:101928001F03012202FA03F3194206D0FFF7AEFCA7
:10193800401B0228E7D903203DE022494B6823F4E5
:101948007413626A206A024313434B604FF080733A
:1019580093FAA3F3B3FA83F303F1845303F58413DF
:101968009B0001221A60FFF791FC04464FF00073B8
:1019780093FAA3F3134B19684FF0007393FAA3F388
:10198800B3FA83F303F01F03012202FA03F31942A7
:1019980006D1FFF77BFC001B0228E7D903200AE0E9
:1019A800002008E0002006E0012004E0032002E017
:1019B800032000E0002002B070BD0120FBE700BF5B
:1019C800C01F000800100240164B5B6803F00C02B1
:1019D800082A24D103F470114FF4701292FAA2F27B
:1019E800B2FA82F221FA02F20F49885C0D4AD26AF1
:1019F80002F00F020F2191FAA1F1B1FA81F1CA4068
:101A08000A498A5C13F4803F03D1094B03FB00F0B9
:101A18007047084BB3FBF2F303FB00F0704705482F
:101A2800704700BF00100240F81F00080820000897
:101A380000093D0000127A0070B50D460446C0B199
:101A4800236813F00F0F1AD0022D1ED89B4B1B686A
:101A580003F007039D421ED9984A136823F0070331
:101A68002B431360136803F007039D4213D0012032
:101A780070BD40F277219248FEF7DAFCE0E74FF4B8
:101A88001E718F48FEF7D4FCDEE740F279218C48BE
:101A9800FEF7CEFCDAE7236813F0020F1DD0A36827
:101AA800A3B1802B12D0902B10D0A02B0ED0B02B2E
:101AB8000CD0C02B0AD0D02B08D0E02B06D0F02BAE
:101AC80004D04FF424717E48FEF7B2FC7D4A536877
:101AD80023F0F003A1680B435360236813F0010F50
:101AE80000F084806368022B32D86368012B35D0FC
:101AF800022B48D0022292FAA2F2724A10680222FD
:101B080092FAA2F2B2FA82F202F01F02012101FA5D
:101B180002F2104200F0D0806A494A6822F00302BB
:101B280013434B60FFF7B2FB06466368012B3FD0B7
:101B3800022B4CD0634B5B6813F00C0F56D0FFF7A9
:101B4800A5FB801B41F288339842F3D9032070BD6E
:101B580040F297215A48FEF76BFCC6E74FF4003273
:101B680092FAA2F2574A10684FF4003292FAA2F29F
:101B7800B2FA82F202F01F02012101FA02F21042C7
:101B8800CAD1012070BD4FF0007292FAA2F24D4AFC
:101B980010684FF0007292FAA2F2B2FA82F202F0E2
:101BA8001F02012101FA02F21042B5D1012070BDD5
:101BB800444B5B6803F00C03042B17D0FFF766FB5C
:101BC800801B41F288339842F2D9032070BD3D4B07
:101BD8005B6803F00C03082B08D0FFF757FB801B4A
:101BE80041F288339842F2D9032070BD334B1B6809
:101BF80003F007039D420CD2304A136823F0070311
:101C08002B431360136803F007039D4201D00120A2
:101C180070BD236813F0040F19D0E36883B1B3F5DE
:101C2800806F0DD0B3F5A06F0AD0B3F5C06F07D0A1
:101C3800B3F5E06F04D040F2E9212148FEF7F8FB44
:101C4800204A536823F4E063E1680B435360236838
:101C580013F0080F1AD0236983B1B3F5806F0DD044
:101C6800B3F5A06F0AD0B3F5C06F07D0B3F5E06F36
:101C780004D04FF43C711248FEF7DAFB114A53685E
:101C880023F46053216943EAC1035360FFF79CFEC4
:101C98000C4B5B6803F0F003F02292FAA2F2B2FA5E
:101CA80082F2D340084AD35CD840084B1860002021
:101CB800FFF7BCFA002070BD012070BD0020024073
:101CC800C01F00080010024050200008000000203B
:101CD800014B1868704700BF00000020F8B50446A3
:101CE8000D4603684E4A93421FD0B3F1804F1CD073
:101CF800A2F59432934218D002F58062934214D030
:101D080002F50062934210D002F5806293420CD033
:101D180002F59032934208D002F54062934204D013
:101D280040F26D713F48FEF783FB2B6893B1102B8F
:101D380010D0202B0ED0302B0CD0402B0AD0502B9B
:101D480008D0602B06D0702B04D040F26E71354855
:101D5800FEF76EFBAB68802B00D003BB94F83C30D9
:101D6800012B5BD0012384F83C3023685E689F68B0
:101D78002B4A934219D002F50062934215D026F0FF
:101D880070062B681E4327F08007AB681F43236843
:101D98005E6023689F60002084F83C00F8BD40F234
:101DA8006F712048FEF744FBD8E76B688BB3B3F537
:101DB800801F2ED0B3F5001F2BD0B3F5401F28D0BD
:101DC800B3F5800F25D0B3F5A00F22D0B3F5C00F1F
:101DD8001FD0B3F5E00F1CD0B3F5000F19D0B3F541
:101DE800100F16D0B3F5200F13D0B3F5300F10D065
:101DF800B3F5400F0DD0B3F5500F0AD0B3F5600F0F
:101E080007D0B3F5700F04D040F27E710548FEF795
:101E18000FFB26F470066B681E43B0E70220F8BD7E
:101E2800002C0140182000087047704770470000D8
:101E38001549D1F8883043F47003C1F88830134B42
:101E48001A6842F001021A605868114A02405A6042
:101E58001A6822F0847222F480321A601A6822F416
:101E680080221A605A6822F4FE025A60DA6A22F066
:101E78000F02DA62186B074A02401A6300229A605E
:101E88004FF000638B60704700ED00E000100240E7
:101E98000CC07FF8CCFC00FFDFF834D0002103E051
:101EA8000C4B5B58435004310B480C4B42189A4278
:101EB800F6D30B4A02E0002342F8043B094B9A424E
:101EC800F9D3FFF7B5FFFEF7ADF9FEF7A7FAFEE77E
:101ED80000A0002068200008000000200400002066
:101EE8000400002064000020FEE70000F8B500BFF1
:101EF800F8BC08BC9E467047F8B500BFF8BC08BCE3
:041F08009E4670473A
:101F0C005372632F6D61696E2E63000044726976A3
:101F1C006572732F53544D3332463378785F484192
:101F2C004C5F4472697665722F5372632F73746DB4
:101F3C003332663378785F68616C5F74696D2E63D9
:101F4C0000000000447269766572732F53544D3350
:101F5C0032463378785F48414C5F447269766572DB
:101F6C002F5372632F73746D3332663378785F68D6
:101F7C00616C5F636F727465782E6300447269766E
:101F8C006572732F53544D3332463378785F484122
:101F9C004C5F4472697665722F5372632F73746D44
:101FAC003332663378785F68616C5F6770696F2E67
:101FBC0063000000447269766572732F53544D337D
:101FCC0032463378785F48414C5F4472697665726B
:101FDC002F5372632F73746D3332663378785F6866
:101FEC00616C5F7263632E630000000002030405E2
:101FFC00060708090A0B0C0D0E0F10100102030442
:10200C0005060708090A0B0C0D0E0F1044726976B1
:10201C006572732F53544D3332463378785F484191
:10202C004C5F4472697665722F5372632F73746DB3
:10203C003332663378785F68616C5F74696D5F65A5
:10204C00782E630000000000000000000102030471
:04205C000607080962
:04206000F50100087E
:04206400CD010008A2
:0420680000127A00E8
:0400000508001EA130
:00000001FF
