:020000040800F2
:1000000000A00020A5130008D50F0008D70F000896
:10001000D90F0008DB0F0008DD0F0008000000000A
:10002000000000000000000000000000DF0F0008DA
:10003000E10F000800000000E30F0008E50F0008D2
:10004000F5130008F5130008F5130008F513000870
:10005000F5130008F5130008F5130008F513000860
:10006000F5130008F5130008F5130008F513000850
:10007000F5130008F5130008F5130008F513000840
:10008000F5130008F5130008F5130008F513000830
:10009000F5130008F5130008F5130008F513000820
:1000A000F5130008F5130008F5130008F513000810
:1000B000F5130008F5130008F5130008F513000800
:1000C000F5130008F5130008F5130008F5130008F0
:1000D000F5130008F5130008F5130008F5130008E0
:1000E000F5130008F5130008F5130008F5130008D0
:1000F000F5130008F5130008F5130008F5130008C0
:10010000000000000000000000000000F5130008DF
:10011000F5130008F5130008F5130008F51300089F
:10012000F5130008F5130008F5130008F51300088F
:10013000F5130008F513000800000000000000009F
:10014000F5130008F5130008F5130008000000007F
:10015000000000000000000000000000000000009F
:100160000000000000000000F5130008F51300086F
:10017000F51300080000000000000000000000006F
:0801800000000000F513000867
:10018800044B05481B1A062B02D9044B03B1184728
:10019800704700BF07000020040000200000000096
:1001A80005490648091A891001EBD171491002D096
:1001B800034B03B1184770470400002004000020D7
:1001C8000000000010B5064C237843B9FFF7D8FFAC
:1001D800044B13B10448AFF300800123237010BD12
:1001E8000400002000000000F813000808B5084BC0
:1001F8001BB108490848AFF300800848036813B9E1
:10020800BDE80840CCE7064B002BF9D09847F7E744
:100218000000000008000020F81300080400002077
:100228000000000070B50F4E0F4D761BB61018BFBA
:10023800002405D0013455F8043B9847A642F9D16B
:100248000A4E0B4D761B01F0D3F8B61018BF0024E8
:1002580006D0013455F8043B9847A642F9D170BD41
:1002680070BD00BFF4140008F4140008F814000866
:10027800F414000870B582B0044600285DD02368E5
:1002880013B113F00F0F5ED0236813F0010F7CD069
:10029800636853B1B3F5803F07D0B3F5A02F04D0FE
:1002A8004FF49071B54801F077F8B54B5B6803F0EF
:1002B8000C03042B52D0B24B5B6803F00C03082BE1
:1002C80047D06368B3F5803F00F0A580002B40F06D
:1002D800A88003F1804303F504331A6822F48032BE
:1002E8001A601A6822F480221A60A54AD36A23F099
:1002F8000F03A1680B43D3626368002B00F0AB8047
:1003080000F03EFF05464FF4003393FAA3F39C4BED
:1003180019684FF4003393FAA3F3B3FA83F303F0A5
:100328001F03012202FA03F319422ED100F028FF1D
:10033800401B6428E7D903202BE340F219118F48AA
:1003480001F02AF89BE74FF48D718C4801F024F8EE
:100358009AE78B4B5B6813F4803FB2D04FF40033BD
:1003680093FAA3F3864B19684FF4003393FAA3F377
:10037800B3FA83F303F01F03012202FA03F31942CD
:1003880003D06368002B00F0FD82236813F0020F8E
:1003980000F0AD802369012B04D94FF4AC71774884
:1003A80000F0FAFF63691F2B72D8754B5B6813F076
:1003B8000C0F78D0724B5B6803F00C03082B6DD0E0
:1003C8002369002B00F0E080012292FAA2F3B3FA2D
:1003D80083F303F1845303F584139B001A6000F040
:1003E800CFFE0546022393FAA3F3654B196802234F
:1003F80093FAA3F3B3FA83F303F01F03012202FA7B
:1004080003F3194240F0AA8000F0BAFE401B02280C
:10041800E8D90320BDE25A4A136843F480331360D5
:1004280063E7B3F5A02F09D0554B1A6822F4803240
:100438001A601A6822F480221A6056E703F1804392
:10044800A3F53C331A6842F480221A601A6842F411
:1004580080321A6049E700F093FE05464FF40033F6
:1004680093FAA3F3464B19684FF4003393FAA3F3B6
:10047800B3FA83F303F01F03012202FA03F31942CC
:1004880083D000F07DFE401B6428E7D9032080E27A
:1004980040F25911394800F07FFF86E7384B5B6816
:1004A80013F4803F8CD1022393FAA3F3344B1968D9
:1004B800022393FAA3F3B3FA83F303F01F03012291
:1004C80002FA03F3194204D02369934201D00120B0
:1004D8005FE22B48036823F0F8036169F82292FA77
:1004E800A2F2B2FA82F201FA02F21343036023681D
:1004F80013F0080F00F09780A369012B04D940F28C
:1005080099111E4800F048FFA369002B63D0012110
:1005180091FAA1F2B2FA82F21A4B13449B001960C5
:1005280000F02EFE0546022393FAA3F293FAA3F2F3
:1005380093FAA3F2124A516A93FAA3F3B3FA83F334
:1005480003F01F03012202FA03F319426BD100F0F2
:1005580017FE401B0228E6D903201AE20848036860
:1005680023F0F8036169F82292FAA2F2B2FA82F251
:1005780001FA02F213430360B9E700BF1014000840
:100588000010024020819010012393FAA3F3B3FADC
:1005980083F303F1845303F584139B0000221A604C
:1005A80000F0EEFD0546022393FAA3F3A34B196866
:1005B800022393FAA3F3B3FA83F303F01F03012290
:1005C80002FA03F3194292D000F0DAFD401B022828
:1005D800E9D90320DDE1012292FAA2F2B2FA82F20D
:1005E800974B13449B0000221A6000F0C9FD054692
:1005F800022393FAA3F293FAA3F293FAA3F28F4A8F
:10060800516A93FAA3F3B3FA83F303F01F030122A9
:1006180002FA03F3194206D000F0B2FD401B02288B
:10062800E6D90320B5E1236813F0040F00F0BE807B
:10063800E368012B06D9052B04D040F2C511814887
:1006480000F0AAFE7D4BDB6913F0805F26D17B4B5F
:10065800DA6942F08052DA61DB6903F08053019372
:10066800019B0125784B1B6813F4807F18D0E36841
:10067800012B29D073BB03F1804303F504331A6AB5
:1006880022F001021A621A6A22F004021A62E3686E
:10069800002B5DD000F074FD064647E00025E1E739
:1006A800694A136843F48073136000F069FD0646D5
:1006B800654B1B6813F4807FD9D100F061FD801B66
:1006C8006428F5D9032064E15C4A136A43F0010306
:1006D8001362DCE7052B09D0584B1A6A22F0010295
:1006E8001A621A6A22F004021A62D0E7534B1A6A95
:1006F80042F004021A621A6A42F001021A62C6E75C
:100708004E4B196A022393FAA3F3B3FA83F303F067
:100718001F03012202FA03F3194245D100F030FD0C
:10072800801B41F28833984200F22E81022393FA0B
:10073800A3F293FAA3F3B3FA83F35B0943F002033A
:10074800022BDDD0022393FAA3F33C4B596AD9E775
:1007580000F016FD064615E0384B196A022393FA95
:10076800A3F3B3FA83F303F01F03012202FA03F39E
:10077800194219D000F004FD801B41F288339842D9
:1007880000F20481022393FAA3F293FAA3F3B3FAD3
:1007980083F35B0943F00203022BDDD0022393FAB3
:1007A800A3F3264B596AD9E7002D3AD1E369022B06
:1007B8003DD8E369002B00F0EB80204A526802F034
:1007C8000C02082A00F0E780022B3FD04FF080731C
:1007D80093FAA3F3B3FA83F303F1845303F5841371
:1007E8009B0000221A6000F0CBFC04464FF0007317
:1007F80093FAA3F3114B19684FF0007393FAA3F31C
:10080800B3FA83F303F01F03012202FA03F3194238
:1008180000F0B68000F0B4FC001B0228E6D90320E3
:10082800B7E0064AD36923F08053D361BEE740F2AC
:100838000921044800F0B0FDBBE700BF00100240EA
:10084800208190101014000800700040236A3BB10A
:10085800B3F5803F04D040F21221504800F09CFDCF
:10086800636A73B3B3F5802F2BD0B3F5002F28D06C
:10087800B3F5402F25D0B3F5801F22D0B3F5A01FC4
:100888001FD0B3F5C01F1CD0B3F5E01F19D0B3F5C6
:10089800001F16D0B3F5101F13D0B3F5201F10D0CA
:1008A800B3F5301F0DD0B3F5401F0AD0B3F5501F74
:1008B80007D0B3F5601F04D040F21321374800F089
:1008C8006BFD4FF0807393FAA3F3B3FA83F303F14C
:1008D800845303F584139B0000221A6000F050FC37
:1008E80005464FF0007393FAA3F32D4B19684FF0A8
:1008F800007393FAA3F3B3FA83F303F01F030122FF
:1009080002FA03F3194206D000F03AFC401B022811
:10091800E7D903203DE022494B6823F47413626A47
:10092800206A024313434B604FF0807393FAA3F39A
:10093800B3FA83F303F1845303F584139B00012274
:100948001A6000F01DFC04464FF0007393FAA3F3FD
:10095800134B19684FF0007393FAA3F3B3FA83F3B8
:1009680003F01F03012202FA03F3194206D100F033
:1009780007FC001B0228E7D903200AE0002008E052
:10098800002006E0012004E0032002E0032000E04C
:10099800002002B070BD0120FBE700BF1014000862
:1009A80000100240164B5B6803F00C02082A24D1A1
:1009B80003F470114FF4701292FAA2F2B2FA82F2B2
:1009C80021FA02F20F49885C0D4AD26A02F00F023E
:1009D8000F2191FAA1F1B1FA81F1CA400A498A5C62
:1009E80013F4803F03D1094B03FB00F07047084B19
:1009F800B3FBF2F303FB00F070470548704700BFF4
:100A080000100240481400085814000800093D006E
:100A180000127A0070B50D460446C0B1236813F081
:100A28000F0F1AD0022D1ED89B4B1B6803F007032B
:100A38009D421ED9984A136823F007032B4313607D
:100A4800136803F007039D4213D0012070BD40F2E4
:100A58007721924800F0A0FCE0E74FF41E718F4820
:100A680000F09AFCDEE740F279218C4800F094FC13
:100A7800DAE7236813F0020F1DD0A368A3B1802B17
:100A880012D0902B10D0A02B0ED0B02B0CD0C02B96
:100A98000AD0D02B08D0E02B06D0F02B04D04FF48E
:100AA80024717E4800F078FC7D4A536823F0F003F7
:100AB800A1680B435360236813F0010F00F0848092
:100AC8006368022B32D86368012B35D0022B48D0DB
:100AD800022292FAA2F2724A1068022292FAA2F252
:100AE800B2FA82F202F01F02012101FA02F2104268
:100AF80000F0D0806A494A6822F0030213434B6031
:100B080000F03EFB06466368012B3FD0022B4CD019
:100B1800634B5B6813F00C0F56D000F031FB801B61
:100B280041F288339842F3D9032070BD40F29721EF
:100B38005A4800F031FCC6E74FF4003292FAA2F2AC
:100B4800574A10684FF4003292FAA2F2B2FA82F2CF
:100B580002F01F02012101FA02F21042CAD101205B
:100B680070BD4FF0007292FAA2F24D4A10684FF031
:100B7800007292FAA2F2B2FA82F202F01F02012186
:100B880001FA02F21042B5D1012070BD444B5B68F6
:100B980003F00C03042B17D000F0F2FA801B41F28B
:100BA80088339842F2D9032070BD3D4B5B6803F04F
:100BB8000C03082B08D000F0E3FA801B41F28833BD
:100BC8009842F2D9032070BD334B1B6803F007032A
:100BD8009D420CD2304A136823F007032B4313605D
:100BE800136803F007039D4201D0012070BD2368FC
:100BF80013F0040F19D0E36883B1B3F5806F0DD0FB
:100C0800B3F5A06F0AD0B3F5C06F07D0B3F5E06FA6
:100C180004D040F2E921214800F0BEFB204A536885
:100C280023F4E063E1680B435360236813F0080F73
:100C38001AD0236983B1B3F5806F0DD0B3F5A06FD7
:100C48000AD0B3F5C06F07D0B3F5E06F04D04FF406
:100C58003C71124800F0A0FB114A536823F460531A
:100C6800216943EAC1035360FFF79CFE0C4B5B68A4
:100C780003F0F003F02292FAA2F2B2FA82F2D34021
:100C8800084AD35CD840084B1860002000F048FAA6
:100C9800002070BD012070BD002002401014000823
:100CA80000100240D814000800000020014B18680A
:100CB800704700BF000000202DE9F04782B00546CC
:100CC8000C46B0F1904F16D0A54B984213D003F5BF
:100CD800806398420FD003F5806398420BD003F5E8
:100CE8008063984207D003F58063984203D0C321FC
:100CF8009C4800F051FB23689AB212B11B0C1B04EC
:100D08001BB1C421974800F047FB6368012B22D927
:100D1800112B20D0022B1ED0122B1CD0924A9342AA
:100D280019D002F58012934215D002F58012934231
:100D380011D0A2F5F81293420DD002F58012934219
:100D480009D002F58012934205D0032B03D0C521A8
:100D5800844800F021FBA368022B01D80026C1E0DB
:100D6800C621804800F018FBF8E7B5F1904F16D07F
:100D78007B4B9D4213D003F580639D420FD003F552
:100D880080639D420BD003F580639D4207D003F535
:100D980080639D4203D0D521724800F0FDFA236993
:100DA8000C2B07D90E2B05D00F2B03D0D6216D485D
:100DB80000F0F2FAF208083255F8223006F007017E
:100DC80089000F20884023EA0003206900FA01F116
:100DD8000B4345F8223097E0E368012B05D9032B34
:100DE80003D0EA215F4800F0D7FAAB6808EA0303AA
:100DF800E26802FA0AF21343AB606B6823EA090956
:100E08006368C3F30013B34049EA03036B60EB68FC
:100E180008EA0308A36803FA0AF348EA0303EB6045
:100E2800636813F0805F5CD0504B9A6942F001020E
:100E38009A619B6903F001030193019BB208911C1D
:100E48004B4B53F8213006F0030189000F208840EE
:100E580023EA0003B5F1904F76D04148854275D01A
:100E680000F58060854273D000F58060854271D0BE
:100E780000F58060854265D0052000FA01F10B433A
:100E880002323B4941F822303A4B1A68FB4302EAE6
:100E98000301606810F4803F01D047EA0201354A37
:100EA8001160526803EA0201606810F4003F01D043
:100EB80047EA02012F4A5160926803EA020160681A
:100EC80010F4801F01D047EA02012A4A9160D268D3
:100ED8001340616811F4001F01D047EA0203254A54
:100EE800D3600136276837FA06F335D04FF0010989
:100EF80009FA06F917EA0907F3D06368022B3FF4E9
:100F080034AF122B3FF431AF2B684FEA460A4FF04B
:100F1800030808FA0AF86FEA080803EA080362688F
:100F280002F0030202FA0AF213432B6063685A1EA6
:100F3800012A7FF651AF112B3FF44EAF122B7FF4ED
:100F480066AF49E7042098E7002096E7012094E778
:100F5800022092E7032090E702B0BDE8F08700BFC7
:100F68000004004868140008000011100010024036
:100F7800000001400004014070B5054614460E46C5
:100F880049B1012C04D940F2B111074800F004FA24
:100F98003CB9AE6270BD4FF4D871034800F0FCF95B
:100FA800EFE7AE6170BD00BF6814000838B50546AC
:100FB8000C4621B94FF4E371034800F0EDF96B6971
:100FC8005C406C6138BD00BF681400087047FEE7DC
:100FD800FEE7FEE7FEE770477047704708B500F088
:100FE800C7F800F098F808BD10B50446C31E042BD6
:100FF8000FD80A4AD36823F4E0631B041B0C2402AD
:1010080004F4E064234343F0BF6343F40033D36044
:1010180010BDBC21024800F0BFF9EAE700ED00E08E
:10102800A014000870B505460C4616460F2A24D8A9
:101038000F2C27D81A4BDB68C3F30223C3F107022E
:10104800042A28BF0422191D062920D9033B01219F
:1010580001FA02F2013A14409C4001FA03F3013B01
:1010680033401C43002D14DB2401E4B205F1604534
:1010780005F5614585F8004370BDD421094800F0A5
:101088008BF9D5E7D521074800F086F9D2E7002388
:10109800DDE705F00F052401E4B2034B5C5570BD94
:1010A80000ED00E0A014000814ED00E00138B0F1F4
:1010B800807F0AD2064B5860F021064A82F8231036
:1010C8000020986007221A6070470120704700BF0F
:1010D80010E000E000ED00E010B50446042800D060
:1010E80038B9042C0BD0094A136823F004031360A1
:1010F80010BD40F2E111064800F04EF9F1E7034A4D
:10110800136843F00403136010BD00BF10E000E053
:10111800A0140008704708B5FFF7FCFF08BD0000E1
:1011280010B50446074B1868074BA3FB003080092D
:10113800FFF7BCFF002221464FF0FF30FFF772FF98
:10114800002010BD00000020D34D621008B5074AEA
:10115800136843F0100313600320FFF745FF0020D6
:10116800FFF7DEFF00F024F8002008BD0020024051
:10117800024A136801331360704700BF2000002043
:10118800014B1868704700BF2000002030B583B0BD
:101198000190FFF7F5FF0546019CB4F1FF3F00D031
:1011A8000134FFF7EDFF401BA042FAD303B030BD76
:1011B80000B583B01C4B9A6942F001029A619B69A1
:1011C80003F001030193019B0320FFF70DFF0022A9
:1011D80011466FF00B00FFF725FF002211466FF054
:1011E8000A00FFF71FFF002211466FF00900FFF702
:1011F80019FF002211466FF00400FFF713FF0022C9
:1012080011466FF00300FFF70DFF002211466FF043
:101218000100FFF707FF002211464FF0FF30FFF7EC
:1012280001FF03B05DF804FB001002401549D1F836
:10123800883043F47003C1F88830134B1A6842F0C1
:1012480001021A605868114A02405A601A6822F06E
:10125800847222F480321A601A6822F480221A609A
:101268005A6822F4FE025A60DA6A22F00F02DA6241
:10127800186B074A02401A6300229A604FF0006315
:101288008B60704700ED00E0001002400CC07FF852
:10129800CCFC00FF10B586B00F4B5A6942F400121F
:1012A8005A615B6903F400130093009B0B4C002206
:1012B8004FF470612046FFF75FFE4FF470630193AF
:1012C8000123029300230393049301A92046FFF707
:1012D800F3FC06B010BD00BF00100240001000482B
:1012E800FEE7000000B591B00223069301220A929E
:1012F80010220B920D9300230E934FF4C0130F93FB
:1013080006A8FEF7B7FF00BB0F2301930223029341
:101318000023039304930593012101A8FFF77AFBA7
:10132800B8B9FFF7C3FC0D4BA3FB00308009FFF7EA
:10133800BDFE0420FFF7D0FE002211464FF0FF301B
:10134800FFF770FE11B05DF804FB83210448FFF736
:10135800C7FF91210248FFF7C3FF00BFD34D6210BA
:10136800E814000808B5FFF7F1FEFFF7BBFFFFF729
:1013780091FF084C4FF480712046FFF717FE0122B9
:101388004FF400612046FFF7F7FDFA20FFF7FEFE55
:10139800EFE700BF0010004870470000DFF834D0C6
:1013A800002103E00C4B5B58435004310B480C4BB5
:1013B80042189A42F6D30B4A02E0002342F8043B53
:1013C800094B9A42F9D3FFF731FFFEF72BFFFFF7DE
:1013D800C9FFFEE700A00020FC1400080000002060
:1013E800040000200400002024000020FEE7000084
:1013F800F8B500BFF8BC08BC9E467047F8B500BFFA
:08140800F8BC08BC9E467047C9
:10141000447269766572732F53544D333246337874
:10142000785F48414C5F4472697665722F537263EE
:101430002F73746D3332663378785F68616C5F72D6
:1014400063632E6300000000020304050607080919
:101450000A0B0C0D0E0F10100102030405060708FD
:10146000090A0B0C0D0E0F10447269766572732F0A
:1014700053544D3332463378785F48414C5F447261
:10148000697665722F5372632F73746D33326633CE
:1014900078785F68616C5F6770696F2E6300000029
:1014A000447269766572732F53544D3332463378E4
:1014B000785F48414C5F4472697665722F5372635E
:1014C0002F73746D3332663378785F68616C5F6355
:1014D0006F727465782E6300000000000000000049
:1014E00001020304060708095372632F6D61696ED8
:0414F0002E63000067
:0414F400F5010008F6
:0414F800CD0100081A
:0414FC0000127A0060
:04000005080013A537
:00000001FF
